{
	"_format": "hh-sol-artifact-1",
	"contractName": "BuidlNFT",
	"sourceName": "contracts/BuidlNFT.sol",
	"abi": [
		{
			"inputs": [
				{
					"internalType": "string",
					"name": "name",
					"type": "string"
				},
				{
					"internalType": "string",
					"name": "symbol",
					"type": "string"
				}
			],
			"stateMutability": "nonpayable",
			"type": "constructor"
		},
		{
			"anonymous": false,
			"inputs": [
				{
					"indexed": true,
					"internalType": "address",
					"name": "owner",
					"type": "address"
				},
				{
					"indexed": true,
					"internalType": "address",
					"name": "approved",
					"type": "address"
				},
				{
					"indexed": true,
					"internalType": "uint256",
					"name": "tokenId",
					"type": "uint256"
				}
			],
			"name": "Approval",
			"type": "event"
		},
		{
			"anonymous": false,
			"inputs": [
				{
					"indexed": true,
					"internalType": "address",
					"name": "owner",
					"type": "address"
				},
				{
					"indexed": true,
					"internalType": "address",
					"name": "operator",
					"type": "address"
				},
				{
					"indexed": false,
					"internalType": "bool",
					"name": "approved",
					"type": "bool"
				}
			],
			"name": "ApprovalForAll",
			"type": "event"
		},
		{
			"anonymous": false,
			"inputs": [
				{
					"indexed": true,
					"internalType": "address",
					"name": "from",
					"type": "address"
				},
				{
					"indexed": true,
					"internalType": "address",
					"name": "to",
					"type": "address"
				},
				{
					"indexed": true,
					"internalType": "uint256",
					"name": "tokenId",
					"type": "uint256"
				}
			],
			"name": "Transfer",
			"type": "event"
		},
		{
			"inputs": [
				{
					"internalType": "address",
					"name": "to",
					"type": "address"
				},
				{
					"internalType": "uint256",
					"name": "tokenId",
					"type": "uint256"
				}
			],
			"name": "approve",
			"outputs": [],
			"stateMutability": "nonpayable",
			"type": "function"
		},
		{
			"inputs": [
				{
					"internalType": "address",
					"name": "owner",
					"type": "address"
				}
			],
			"name": "balanceOf",
			"outputs": [
				{
					"internalType": "uint256",
					"name": "",
					"type": "uint256"
				}
			],
			"stateMutability": "view",
			"type": "function"
		},
		{
			"inputs": [
				{
					"internalType": "uint256",
					"name": "tokenId",
					"type": "uint256"
				}
			],
			"name": "getApproved",
			"outputs": [
				{
					"internalType": "address",
					"name": "",
					"type": "address"
				}
			],
			"stateMutability": "view",
			"type": "function"
		},
		{
			"inputs": [
				{
					"internalType": "uint256",
					"name": "tokenId",
					"type": "uint256"
				}
			],
			"name": "getTokenURI",
			"outputs": [
				{
					"internalType": "string",
					"name": "",
					"type": "string"
				}
			],
			"stateMutability": "view",
			"type": "function"
		},
		{
			"inputs": [
				{
					"internalType": "address",
					"name": "owner",
					"type": "address"
				},
				{
					"internalType": "address",
					"name": "operator",
					"type": "address"
				}
			],
			"name": "isApprovedForAll",
			"outputs": [
				{
					"internalType": "bool",
					"name": "",
					"type": "bool"
				}
			],
			"stateMutability": "view",
			"type": "function"
		},
		{
			"inputs": [],
			"name": "name",
			"outputs": [
				{
					"internalType": "string",
					"name": "",
					"type": "string"
				}
			],
			"stateMutability": "view",
			"type": "function"
		},
		{
			"inputs": [
				{
					"internalType": "uint256",
					"name": "tokenId",
					"type": "uint256"
				}
			],
			"name": "ownerOf",
			"outputs": [
				{
					"internalType": "address",
					"name": "",
					"type": "address"
				}
			],
			"stateMutability": "view",
			"type": "function"
		},
		{
			"inputs": [
				{
					"internalType": "address",
					"name": "to",
					"type": "address"
				},
				{
					"internalType": "string",
					"name": "uri",
					"type": "string"
				}
			],
			"name": "safeMint",
			"outputs": [],
			"stateMutability": "nonpayable",
			"type": "function"
		},
		{
			"inputs": [
				{
					"internalType": "address",
					"name": "from",
					"type": "address"
				},
				{
					"internalType": "address",
					"name": "to",
					"type": "address"
				},
				{
					"internalType": "uint256",
					"name": "tokenId",
					"type": "uint256"
				}
			],
			"name": "safeTransferFrom",
			"outputs": [],
			"stateMutability": "nonpayable",
			"type": "function"
		},
		{
			"inputs": [
				{
					"internalType": "address",
					"name": "from",
					"type": "address"
				},
				{
					"internalType": "address",
					"name": "to",
					"type": "address"
				},
				{
					"internalType": "uint256",
					"name": "tokenId",
					"type": "uint256"
				},
				{
					"internalType": "bytes",
					"name": "data",
					"type": "bytes"
				}
			],
			"name": "safeTransferFrom",
			"outputs": [],
			"stateMutability": "nonpayable",
			"type": "function"
		},
		{
			"inputs": [
				{
					"internalType": "address",
					"name": "operator",
					"type": "address"
				},
				{
					"internalType": "bool",
					"name": "approved",
					"type": "bool"
				}
			],
			"name": "setApprovalForAll",
			"outputs": [],
			"stateMutability": "nonpayable",
			"type": "function"
		},
		{
			"inputs": [
				{
					"internalType": "bytes4",
					"name": "interfaceId",
					"type": "bytes4"
				}
			],
			"name": "supportsInterface",
			"outputs": [
				{
					"internalType": "bool",
					"name": "",
					"type": "bool"
				}
			],
			"stateMutability": "view",
			"type": "function"
		},
		{
			"inputs": [],
			"name": "symbol",
			"outputs": [
				{
					"internalType": "string",
					"name": "",
					"type": "string"
				}
			],
			"stateMutability": "view",
			"type": "function"
		},
		{
			"inputs": [
				{
					"internalType": "uint256",
					"name": "tokenId",
					"type": "uint256"
				}
			],
			"name": "tokenURI",
			"outputs": [
				{
					"internalType": "string",
					"name": "",
					"type": "string"
				}
			],
			"stateMutability": "view",
			"type": "function"
		},
		{
			"inputs": [
				{
					"internalType": "address",
					"name": "to",
					"type": "address"
				},
				{
					"internalType": "uint256",
					"name": "tokenId",
					"type": "uint256"
				}
			],
			"name": "transfer",
			"outputs": [],
			"stateMutability": "nonpayable",
			"type": "function"
		},
		{
			"inputs": [
				{
					"internalType": "address",
					"name": "from",
					"type": "address"
				},
				{
					"internalType": "address",
					"name": "to",
					"type": "address"
				},
				{
					"internalType": "uint256",
					"name": "tokenId",
					"type": "uint256"
				}
			],
			"name": "transferFrom",
			"outputs": [],
			"stateMutability": "nonpayable",
			"type": "function"
		}
	],
	"bytecode": "0x60806040523480156200001157600080fd5b50604051620032393803806200323983398181016040528101906200003791906200023b565b818181600090816200004a91906200050b565b5080600190816200005c91906200050b565b50505033600860006101000a81548173ffffffffffffffffffffffffffffffffffffffff021916908373ffffffffffffffffffffffffffffffffffffffff1602179055505050620005f2565b6000604051905090565b600080fd5b600080fd5b600080fd5b600080fd5b6000601f19601f8301169050919050565b7f4e487b7100000000000000000000000000000000000000000000000000000000600052604160045260246000fd5b6200011182620000c6565b810181811067ffffffffffffffff82111715620001335762000132620000d7565b5b80604052505050565b600062000148620000a8565b905062000156828262000106565b919050565b600067ffffffffffffffff821115620001795762000178620000d7565b5b6200018482620000c6565b9050602081019050919050565b60005b83811015620001b157808201518184015260208101905062000194565b60008484015250505050565b6000620001d4620001ce846200015b565b6200013c565b905082815260208101848484011115620001f357620001f2620000c1565b5b6200020084828562000191565b509392505050565b600082601f83011262000220576200021f620000bc565b5b815162000232848260208601620001bd565b91505092915050565b60008060408385031215620002555762000254620000b2565b5b600083015167ffffffffffffffff811115620002765762000275620000b7565b5b620002848582860162000208565b925050602083015167ffffffffffffffff811115620002a857620002a7620000b7565b5b620002b68582860162000208565b9150509250929050565b600081519050919050565b7f4e487b7100000000000000000000000000000000000000000000000000000000600052602260045260246000fd5b600060028204905060018216806200031357607f821691505b602082108103620003295762000328620002cb565b5b50919050565b60008190508160005260206000209050919050565b60006020601f8301049050919050565b600082821b905092915050565b600060088302620003937fffffffffffffffffffffffffffffffffffffffffffffffffffffffffffffffff8262000354565b6200039f868362000354565b95508019841693508086168417925050509392505050565b6000819050919050565b6000819050919050565b6000620003ec620003e6620003e084620003b7565b620003c1565b620003b7565b9050919050565b6000819050919050565b6200040883620003cb565b620004206200041782620003f3565b84845462000361565b825550505050565b600090565b6200043762000428565b62000444818484620003fd565b505050565b5b818110156200046c57620004606000826200042d565b6001810190506200044a565b5050565b601f821115620004bb5762000485816200032f565b620004908462000344565b81016020851015620004a0578190505b620004b8620004af8562000344565b83018262000449565b50505b505050565b600082821c905092915050565b6000620004e060001984600802620004c0565b1980831691505092915050565b6000620004fb8383620004cd565b9150826002028217905092915050565b6200051682620002c0565b67ffffffffffffffff811115620005325762000531620000d7565b5b6200053e8254620002fa565b6200054b82828562000470565b600060209050601f8311600181146200058357600084156200056e578287015190505b6200057a8582620004ed565b865550620005ea565b601f19841662000593866200032f565b60005b82811015620005bd5784890151825560018201915060208501945060208101905062000596565b86831015620005dd5784890151620005d9601f891682620004cd565b8355505b6001600288020188555050505b505050505050565b612c3780620006026000396000f3fe608060405234801561001057600080fd5b50600436106101005760003560e01c806370a0823111610097578063b88d4fde11610066578063b88d4fde146102bd578063c87b56dd146102d9578063d204c45e14610309578063e985e9c51461032557610100565b806370a082311461023757806395d89b4114610267578063a22cb46514610285578063a9059cbb146102a157610100565b806323b872dd116100d357806323b872dd1461019f5780633bb3a24d146101bb57806342842e0e146101eb5780636352211e1461020757610100565b806301ffc9a71461010557806306fdde0314610135578063081812fc14610153578063095ea7b314610183575b600080fd5b61011f600480360381019061011a9190611aba565b610355565b60405161012c9190611b02565b60405180910390f35b61013d610437565b60405161014a9190611bad565b60405180910390f35b61016d60048036038101906101689190611c05565b6104c9565b60405161017a9190611c73565b60405180910390f35b61019d60048036038101906101989190611cba565b61050f565b005b6101b960048036038101906101b49190611cfa565b610626565b005b6101d560048036038101906101d09190611c05565b610686565b6040516101e29190611bad565b60405180910390f35b61020560048036038101906102009190611cfa565b610698565b005b610221600480360381019061021c9190611c05565b6106b8565b60405161022e9190611c73565b60405180910390f35b610251600480360381019061024c9190611d4d565b61073e565b60405161025e9190611d89565b60405180910390f35b61026f6107f5565b60405161027c9190611bad565b60405180910390f35b61029f600480360381019061029a9190611dd0565b610887565b005b6102bb60048036038101906102b69190611cba565b61089d565b005b6102d760048036038101906102d29190611f45565b6108ac565b005b6102f360048036038101906102ee9190611c05565b61090e565b6040516103009190611bad565b60405180910390f35b610323600480360381019061031e9190612069565b610920565b005b61033f600480360381019061033a91906120c5565b6109e1565b60405161034c9190611b02565b60405180910390f35b60007f80ac58cd000000000000000000000000000000000000000000000000000000007bffffffffffffffffffffffffffffffffffffffffffffffffffffffff1916827bffffffffffffffffffffffffffffffffffffffffffffffffffffffff1916148061042057507f5b5e139f000000000000000000000000000000000000000000000000000000007bffffffffffffffffffffffffffffffffffffffffffffffffffffffff1916827bffffffffffffffffffffffffffffffffffffffffffffffffffffffff1916145b80610430575061042f82610a75565b5b9050919050565b60606000805461044690612134565b80601f016020809104026020016040519081016040528092919081815260200182805461047290612134565b80156104bf5780601f10610494576101008083540402835291602001916104bf565b820191906000526020600020905b8154815290600101906020018083116104a257829003601f168201915b5050505050905090565b60006104d482610adf565b6004600083815260200190815260200160002060009054906101000a900473ffffffffffffffffffffffffffffffffffffffff169050919050565b600061051a826106b8565b90508073ffffffffffffffffffffffffffffffffffffffff168373ffffffffffffffffffffffffffffffffffffffff160361058a576040517f08c379a0000000000000000000000000000000000000000000000000000000008152600401610581906121d7565b60405180910390fd5b8073ffffffffffffffffffffffffffffffffffffffff166105a9610b2a565b73ffffffffffffffffffffffffffffffffffffffff1614806105d857506105d7816105d2610b2a565b6109e1565b5b610617576040517f08c379a000000000000000000000000000000000000000000000000000000000815260040161060e90612269565b60405180910390fd5b6106218383610b32565b505050565b610637610631610b2a565b82610beb565b610676576040517f08c379a000000000000000000000000000000000000000000000000000000000815260040161066d906122fb565b60405180910390fd5b610681838383610c80565b505050565b60606106918261090e565b9050919050565b6106b3838383604051806020016040528060008152506108ac565b505050565b6000806106c483610f79565b9050600073ffffffffffffffffffffffffffffffffffffffff168173ffffffffffffffffffffffffffffffffffffffff1603610735576040517f08c379a000000000000000000000000000000000000000000000000000000000815260040161072c90612367565b60405180910390fd5b80915050919050565b60008073ffffffffffffffffffffffffffffffffffffffff168273ffffffffffffffffffffffffffffffffffffffff16036107ae576040517f08c379a00000000000000000000000000000000000000000000000000000000081526004016107a5906123f9565b60405180910390fd5b600360008373ffffffffffffffffffffffffffffffffffffffff1673ffffffffffffffffffffffffffffffffffffffff168152602001908152602001600020549050919050565b60606001805461080490612134565b80601f016020809104026020016040519081016040528092919081815260200182805461083090612134565b801561087d5780601f106108525761010080835404028352916020019161087d565b820191906000526020600020905b81548152906001019060200180831161086057829003601f168201915b5050505050905090565b610899610892610b2a565b8383610fb6565b5050565b6108a8338383610698565b5050565b6108bd6108b7610b2a565b83610beb565b6108fc576040517f08c379a00000000000000000000000000000000000000000000000000000000081526004016108f3906122fb565b60405180910390fd5b61090884848484611122565b50505050565b60606109198261117e565b9050919050565b600860009054906101000a900473ffffffffffffffffffffffffffffffffffffffff1673ffffffffffffffffffffffffffffffffffffffff163373ffffffffffffffffffffffffffffffffffffffff16146109b0576040517f08c379a00000000000000000000000000000000000000000000000000000000081526004016109a790612465565b60405180910390fd5b60006109bc6007611290565b90506109c8600761129e565b6109d283826112b4565b6109dc81836112d2565b505050565b6000600560008473ffffffffffffffffffffffffffffffffffffffff1673ffffffffffffffffffffffffffffffffffffffff16815260200190815260200160002060008373ffffffffffffffffffffffffffffffffffffffff1673ffffffffffffffffffffffffffffffffffffffff16815260200190815260200160002060009054906101000a900460ff16905092915050565b60007f01ffc9a7000000000000000000000000000000000000000000000000000000007bffffffffffffffffffffffffffffffffffffffffffffffffffffffff1916827bffffffffffffffffffffffffffffffffffffffffffffffffffffffff1916149050919050565b610ae88161133f565b610b27576040517f08c379a0000000000000000000000000000000000000000000000000000000008152600401610b1e90612367565b60405180910390fd5b50565b600033905090565b816004600083815260200190815260200160002060006101000a81548173ffffffffffffffffffffffffffffffffffffffff021916908373ffffffffffffffffffffffffffffffffffffffff160217905550808273ffffffffffffffffffffffffffffffffffffffff16610ba5836106b8565b73ffffffffffffffffffffffffffffffffffffffff167f8c5be1e5ebec7d5bd14f71427d1e84f3dd0314c0f7b2291e5b200ac8c7c3b92560405160405180910390a45050565b600080610bf7836106b8565b90508073ffffffffffffffffffffffffffffffffffffffff168473ffffffffffffffffffffffffffffffffffffffff161480610c395750610c3881856109e1565b5b80610c7757508373ffffffffffffffffffffffffffffffffffffffff16610c5f846104c9565b73ffffffffffffffffffffffffffffffffffffffff16145b91505092915050565b8273ffffffffffffffffffffffffffffffffffffffff16610ca0826106b8565b73ffffffffffffffffffffffffffffffffffffffff1614610cf6576040517f08c379a0000000000000000000000000000000000000000000000000000000008152600401610ced906124f7565b60405180910390fd5b600073ffffffffffffffffffffffffffffffffffffffff168273ffffffffffffffffffffffffffffffffffffffff1603610d65576040517f08c379a0000000000000000000000000000000000000000000000000000000008152600401610d5c90612589565b60405180910390fd5b610d728383836001611380565b8273ffffffffffffffffffffffffffffffffffffffff16610d92826106b8565b73ffffffffffffffffffffffffffffffffffffffff1614610de8576040517f08c379a0000000000000000000000000000000000000000000000000000000008152600401610ddf906124f7565b60405180910390fd5b6004600082815260200190815260200160002060006101000a81549073ffffffffffffffffffffffffffffffffffffffff02191690556001600360008573ffffffffffffffffffffffffffffffffffffffff1673ffffffffffffffffffffffffffffffffffffffff168152602001908152602001600020600082825403925050819055506001600360008473ffffffffffffffffffffffffffffffffffffffff1673ffffffffffffffffffffffffffffffffffffffff16815260200190815260200160002060008282540192505081905550816002600083815260200190815260200160002060006101000a81548173ffffffffffffffffffffffffffffffffffffffff021916908373ffffffffffffffffffffffffffffffffffffffff160217905550808273ffffffffffffffffffffffffffffffffffffffff168473ffffffffffffffffffffffffffffffffffffffff167fddf252ad1be2c89b69c2b068fc378daa952ba7f163c4a11628f55a4df523b3ef60405160405180910390a4610f748383836001611386565b505050565b60006002600083815260200190815260200160002060009054906101000a900473ffffffffffffffffffffffffffffffffffffffff169050919050565b8173ffffffffffffffffffffffffffffffffffffffff168373ffffffffffffffffffffffffffffffffffffffff1603611024576040517f08c379a000000000000000000000000000000000000000000000000000000000815260040161101b906125f5565b60405180910390fd5b80600560008573ffffffffffffffffffffffffffffffffffffffff1673ffffffffffffffffffffffffffffffffffffffff16815260200190815260200160002060008473ffffffffffffffffffffffffffffffffffffffff1673ffffffffffffffffffffffffffffffffffffffff16815260200190815260200160002060006101000a81548160ff0219169083151502179055508173ffffffffffffffffffffffffffffffffffffffff168373ffffffffffffffffffffffffffffffffffffffff167f17307eab39ab6107e8899845ad3d59bd9653f200f220920489ca2b5937696c31836040516111159190611b02565b60405180910390a3505050565b61112d848484610c80565b6111398484848461138c565b611178576040517f08c379a000000000000000000000000000000000000000000000000000000000815260040161116f90612687565b60405180910390fd5b50505050565b606061118982610adf565b60006006600084815260200190815260200160002080546111a990612134565b80601f01602080910402602001604051908101604052809291908181526020018280546111d590612134565b80156112225780601f106111f757610100808354040283529160200191611222565b820191906000526020600020905b81548152906001019060200180831161120557829003601f168201915b505050505090506000611233611513565b9050600081510361124857819250505061128b565b60008251111561127d5780826040516020016112659291906126e3565b6040516020818303038152906040529250505061128b565b6112868461152a565b925050505b919050565b600081600001549050919050565b6001816000016000828254019250508190555050565b6112ce828260405180602001604052806000815250611592565b5050565b6112db8261133f565b61131a576040517f08c379a000000000000000000000000000000000000000000000000000000000815260040161131190612779565b60405180910390fd5b8060066000848152602001908152602001600020908161133a9190612945565b505050565b60008073ffffffffffffffffffffffffffffffffffffffff1661136183610f79565b73ffffffffffffffffffffffffffffffffffffffff1614159050919050565b50505050565b50505050565b60006113ad8473ffffffffffffffffffffffffffffffffffffffff166115ed565b15611506578373ffffffffffffffffffffffffffffffffffffffff1663150b7a026113d6610b2a565b8786866040518563ffffffff1660e01b81526004016113f89493929190612a6c565b6020604051808303816000875af192505050801561143457506040513d601f19601f820116820180604052508101906114319190612acd565b60015b6114b6573d8060008114611464576040519150601f19603f3d011682016040523d82523d6000602084013e611469565b606091505b5060008151036114ae576040517f08c379a00000000000000000000000000000000000000000000000000000000081526004016114a590612687565b60405180910390fd5b805181602001fd5b63150b7a0260e01b7bffffffffffffffffffffffffffffffffffffffffffffffffffffffff1916817bffffffffffffffffffffffffffffffffffffffffffffffffffffffff19161491505061150b565b600190505b949350505050565b606060405180602001604052806000815250905090565b606061153582610adf565b600061153f611513565b9050600081511161155f576040518060200160405280600081525061158a565b8061156984611610565b60405160200161157a9291906126e3565b6040516020818303038152906040525b915050919050565b61159c83836116de565b6115a9600084848461138c565b6115e8576040517f08c379a00000000000000000000000000000000000000000000000000000000081526004016115df90612687565b60405180910390fd5b505050565b6000808273ffffffffffffffffffffffffffffffffffffffff163b119050919050565b60606000600161161f846118fb565b01905060008167ffffffffffffffff81111561163e5761163d611e1a565b5b6040519080825280601f01601f1916602001820160405280156116705781602001600182028036833780820191505090505b509050600082602001820190505b6001156116d3578080600190039150507f3031323334353637383961626364656600000000000000000000000000000000600a86061a8153600a85816116c7576116c6612afa565b5b0494506000850361167e575b819350505050919050565b600073ffffffffffffffffffffffffffffffffffffffff168273ffffffffffffffffffffffffffffffffffffffff160361174d576040517f08c379a000000000000000000000000000000000000000000000000000000000815260040161174490612b75565b60405180910390fd5b6117568161133f565b15611796576040517f08c379a000000000000000000000000000000000000000000000000000000000815260040161178d90612be1565b60405180910390fd5b6117a4600083836001611380565b6117ad8161133f565b156117ed576040517f08c379a00000000000000000000000000000000000000000000000000000000081526004016117e490612be1565b60405180910390fd5b6001600360008473ffffffffffffffffffffffffffffffffffffffff1673ffffffffffffffffffffffffffffffffffffffff16815260200190815260200160002060008282540192505081905550816002600083815260200190815260200160002060006101000a81548173ffffffffffffffffffffffffffffffffffffffff021916908373ffffffffffffffffffffffffffffffffffffffff160217905550808273ffffffffffffffffffffffffffffffffffffffff16600073ffffffffffffffffffffffffffffffffffffffff167fddf252ad1be2c89b69c2b068fc378daa952ba7f163c4a11628f55a4df523b3ef60405160405180910390a46118f7600083836001611386565b5050565b600080600090507a184f03e93ff9f4daa797ed6e38ed64bf6a1f0100000000000000008310611959577a184f03e93ff9f4daa797ed6e38ed64bf6a1f010000000000000000838161194f5761194e612afa565b5b0492506040810190505b6d04ee2d6d415b85acef81000000008310611996576d04ee2d6d415b85acef8100000000838161198c5761198b612afa565b5b0492506020810190505b662386f26fc1000083106119c557662386f26fc1000083816119bb576119ba612afa565b5b0492506010810190505b6305f5e10083106119ee576305f5e10083816119e4576119e3612afa565b5b0492506008810190505b6127108310611a13576127108381611a0957611a08612afa565b5b0492506004810190505b60648310611a365760648381611a2c57611a2b612afa565b5b0492506002810190505b600a8310611a45576001810190505b80915050919050565b6000604051905090565b600080fd5b600080fd5b60007fffffffff0000000000000000000000000000000000000000000000000000000082169050919050565b611a9781611a62565b8114611aa257600080fd5b50565b600081359050611ab481611a8e565b92915050565b600060208284031215611ad057611acf611a58565b5b6000611ade84828501611aa5565b91505092915050565b60008115159050919050565b611afc81611ae7565b82525050565b6000602082019050611b176000830184611af3565b92915050565b600081519050919050565b600082825260208201905092915050565b60005b83811015611b57578082015181840152602081019050611b3c565b60008484015250505050565b6000601f19601f8301169050919050565b6000611b7f82611b1d565b611b898185611b28565b9350611b99818560208601611b39565b611ba281611b63565b840191505092915050565b60006020820190508181036000830152611bc78184611b74565b905092915050565b6000819050919050565b611be281611bcf565b8114611bed57600080fd5b50565b600081359050611bff81611bd9565b92915050565b600060208284031215611c1b57611c1a611a58565b5b6000611c2984828501611bf0565b91505092915050565b600073ffffffffffffffffffffffffffffffffffffffff82169050919050565b6000611c5d82611c32565b9050919050565b611c6d81611c52565b82525050565b6000602082019050611c886000830184611c64565b92915050565b611c9781611c52565b8114611ca257600080fd5b50565b600081359050611cb481611c8e565b92915050565b60008060408385031215611cd157611cd0611a58565b5b6000611cdf85828601611ca5565b9250506020611cf085828601611bf0565b9150509250929050565b600080600060608486031215611d1357611d12611a58565b5b6000611d2186828701611ca5565b9350506020611d3286828701611ca5565b9250506040611d4386828701611bf0565b9150509250925092565b600060208284031215611d6357611d62611a58565b5b6000611d7184828501611ca5565b91505092915050565b611d8381611bcf565b82525050565b6000602082019050611d9e6000830184611d7a565b92915050565b611dad81611ae7565b8114611db857600080fd5b50565b600081359050611dca81611da4565b92915050565b60008060408385031215611de757611de6611a58565b5b6000611df585828601611ca5565b9250506020611e0685828601611dbb565b9150509250929050565b600080fd5b600080fd5b7f4e487b7100000000000000000000000000000000000000000000000000000000600052604160045260246000fd5b611e5282611b63565b810181811067ffffffffffffffff82111715611e7157611e70611e1a565b5b80604052505050565b6000611e84611a4e565b9050611e908282611e49565b919050565b600067ffffffffffffffff821115611eb057611eaf611e1a565b5b611eb982611b63565b9050602081019050919050565b82818337600083830152505050565b6000611ee8611ee384611e95565b611e7a565b905082815260208101848484011115611f0457611f03611e15565b5b611f0f848285611ec6565b509392505050565b600082601f830112611f2c57611f2b611e10565b5b8135611f3c848260208601611ed5565b91505092915050565b60008060008060808587031215611f5f57611f5e611a58565b5b6000611f6d87828801611ca5565b9450506020611f7e87828801611ca5565b9350506040611f8f87828801611bf0565b925050606085013567ffffffffffffffff811115611fb057611faf611a5d565b5b611fbc87828801611f17565b91505092959194509250565b600067ffffffffffffffff821115611fe357611fe2611e1a565b5b611fec82611b63565b9050602081019050919050565b600061200c61200784611fc8565b611e7a565b90508281526020810184848401111561202857612027611e15565b5b612033848285611ec6565b509392505050565b600082601f8301126120505761204f611e10565b5b8135612060848260208601611ff9565b91505092915050565b600080604083850312156120805761207f611a58565b5b600061208e85828601611ca5565b925050602083013567ffffffffffffffff8111156120af576120ae611a5d565b5b6120bb8582860161203b565b9150509250929050565b600080604083850312156120dc576120db611a58565b5b60006120ea85828601611ca5565b92505060206120fb85828601611ca5565b9150509250929050565b7f4e487b7100000000000000000000000000000000000000000000000000000000600052602260045260246000fd5b6000600282049050600182168061214c57607f821691505b60208210810361215f5761215e612105565b5b50919050565b7f4552433732313a20617070726f76616c20746f2063757272656e74206f776e6560008201527f7200000000000000000000000000000000000000000000000000000000000000602082015250565b60006121c1602183611b28565b91506121cc82612165565b604082019050919050565b600060208201905081810360008301526121f0816121b4565b9050919050565b7f4552433732313a20617070726f76652063616c6c6572206973206e6f7420746f60008201527f6b656e206f776e6572206f7220617070726f76656420666f7220616c6c000000602082015250565b6000612253603d83611b28565b915061225e826121f7565b604082019050919050565b6000602082019050818103600083015261228281612246565b9050919050565b7f4552433732313a2063616c6c6572206973206e6f7420746f6b656e206f776e6560008201527f72206f7220617070726f76656400000000000000000000000000000000000000602082015250565b60006122e5602d83611b28565b91506122f082612289565b604082019050919050565b60006020820190508181036000830152612314816122d8565b9050919050565b7f4552433732313a20696e76616c696420746f6b656e2049440000000000000000600082015250565b6000612351601883611b28565b915061235c8261231b565b602082019050919050565b6000602082019050818103600083015261238081612344565b9050919050565b7f4552433732313a2061646472657373207a65726f206973206e6f74206120766160008201527f6c6964206f776e65720000000000000000000000000000000000000000000000602082015250565b60006123e3602983611b28565b91506123ee82612387565b604082019050919050565b60006020820190508181036000830152612412816123d6565b9050919050565b7f4552523a4e4f0000000000000000000000000000000000000000000000000000600082015250565b600061244f600683611b28565b915061245a82612419565b602082019050919050565b6000602082019050818103600083015261247e81612442565b9050919050565b7f4552433732313a207472616e736665722066726f6d20696e636f72726563742060008201527f6f776e6572000000000000000000000000000000000000000000000000000000602082015250565b60006124e1602583611b28565b91506124ec82612485565b604082019050919050565b60006020820190508181036000830152612510816124d4565b9050919050565b7f4552433732313a207472616e7366657220746f20746865207a65726f2061646460008201527f7265737300000000000000000000000000000000000000000000000000000000602082015250565b6000612573602483611b28565b915061257e82612517565b604082019050919050565b600060208201905081810360008301526125a281612566565b9050919050565b7f4552433732313a20617070726f766520746f2063616c6c657200000000000000600082015250565b60006125df601983611b28565b91506125ea826125a9565b602082019050919050565b6000602082019050818103600083015261260e816125d2565b9050919050565b7f4552433732313a207472616e7366657220746f206e6f6e20455243373231526560008201527f63656976657220696d706c656d656e7465720000000000000000000000000000602082015250565b6000612671603283611b28565b915061267c82612615565b604082019050919050565b600060208201905081810360008301526126a081612664565b9050919050565b600081905092915050565b60006126bd82611b1d565b6126c781856126a7565b93506126d7818560208601611b39565b80840191505092915050565b60006126ef82856126b2565b91506126fb82846126b2565b91508190509392505050565b7f45524337323155524953746f726167653a2055524920736574206f66206e6f6e60008201527f6578697374656e7420746f6b656e000000000000000000000000000000000000602082015250565b6000612763602e83611b28565b915061276e82612707565b604082019050919050565b6000602082019050818103600083015261279281612756565b9050919050565b60008190508160005260206000209050919050565b60006020601f8301049050919050565b600082821b905092915050565b6000600883026127fb7fffffffffffffffffffffffffffffffffffffffffffffffffffffffffffffffff826127be565b61280586836127be565b95508019841693508086168417925050509392505050565b6000819050919050565b600061284261283d61283884611bcf565b61281d565b611bcf565b9050919050565b6000819050919050565b61285c83612827565b61287061286882612849565b8484546127cb565b825550505050565b600090565b612885612878565b612890818484612853565b505050565b5b818110156128b4576128a960008261287d565b600181019050612896565b5050565b601f8211156128f9576128ca81612799565b6128d3846127ae565b810160208510156128e2578190505b6128f66128ee856127ae565b830182612895565b50505b505050565b600082821c905092915050565b600061291c600019846008026128fe565b1980831691505092915050565b6000612935838361290b565b9150826002028217905092915050565b61294e82611b1d565b67ffffffffffffffff81111561296757612966611e1a565b5b6129718254612134565b61297c8282856128b8565b600060209050601f8311600181146129af576000841561299d578287015190505b6129a78582612929565b865550612a0f565b601f1984166129bd86612799565b60005b828110156129e5578489015182556001820191506020850194506020810190506129c0565b86831015612a0257848901516129fe601f89168261290b565b8355505b6001600288020188555050505b505050505050565b600081519050919050565b600082825260208201905092915050565b6000612a3e82612a17565b612a488185612a22565b9350612a58818560208601611b39565b612a6181611b63565b840191505092915050565b6000608082019050612a816000830187611c64565b612a8e6020830186611c64565b612a9b6040830185611d7a565b8181036060830152612aad8184612a33565b905095945050505050565b600081519050612ac781611a8e565b92915050565b600060208284031215612ae357612ae2611a58565b5b6000612af184828501612ab8565b91505092915050565b7f4e487b7100000000000000000000000000000000000000000000000000000000600052601260045260246000fd5b7f4552433732313a206d696e7420746f20746865207a65726f2061646472657373600082015250565b6000612b5f602083611b28565b9150612b6a82612b29565b602082019050919050565b60006020820190508181036000830152612b8e81612b52565b9050919050565b7f4552433732313a20746f6b656e20616c7265616479206d696e74656400000000600082015250565b6000612bcb601c83611b28565b9150612bd682612b95565b602082019050919050565b60006020820190508181036000830152612bfa81612bbe565b905091905056fea2646970667358221220da3962d34f65acd8599a05c18d535e448768bbcbf934c13f5a6f09d1f96aaeb364736f6c63430008120033",
	"linkReferences": {},
	"deployedLinkReferences": {}
}