{
  "_format": "hh-sol-artifact-1",
  "address": "0x5FbDB2315678afecb367f032d93F642f64180aa3",
  "contractName": "BuidlNFT",
  "sourceName": "contracts/BuidlNFT.sol",
  "abi": [
    {
      "inputs": [
        {
          "internalType": "string",
          "name": "name",
          "type": "string"
        },
        {
          "internalType": "string",
          "name": "symbol",
          "type": "string"
        }
      ],
      "stateMutability": "nonpayable",
      "type": "constructor"
    },
    {
      "anonymous": false,
      "inputs": [
        {
          "indexed": true,
          "internalType": "address",
          "name": "owner",
          "type": "address"
        },
        {
          "indexed": true,
          "internalType": "address",
          "name": "approved",
          "type": "address"
        },
        {
          "indexed": true,
          "internalType": "uint256",
          "name": "tokenId",
          "type": "uint256"
        }
      ],
      "name": "Approval",
      "type": "event"
    },
    {
      "anonymous": false,
      "inputs": [
        {
          "indexed": true,
          "internalType": "address",
          "name": "owner",
          "type": "address"
        },
        {
          "indexed": true,
          "internalType": "address",
          "name": "operator",
          "type": "address"
        },
        {
          "indexed": false,
          "internalType": "bool",
          "name": "approved",
          "type": "bool"
        }
      ],
      "name": "ApprovalForAll",
      "type": "event"
    },
    {
      "anonymous": false,
      "inputs": [
        {
          "indexed": true,
          "internalType": "address",
          "name": "from",
          "type": "address"
        },
        {
          "indexed": true,
          "internalType": "address",
          "name": "to",
          "type": "address"
        },
        {
          "indexed": true,
          "internalType": "uint256",
          "name": "tokenId",
          "type": "uint256"
        }
      ],
      "name": "Transfer",
      "type": "event"
    },
    {
      "inputs": [
        {
          "internalType": "address",
          "name": "to",
          "type": "address"
        },
        {
          "internalType": "uint256",
          "name": "tokenId",
          "type": "uint256"
        }
      ],
      "name": "approve",
      "outputs": [],
      "stateMutability": "nonpayable",
      "type": "function"
    },
    {
      "inputs": [
        {
          "internalType": "address",
          "name": "owner",
          "type": "address"
        }
      ],
      "name": "balanceOf",
      "outputs": [
        {
          "internalType": "uint256",
          "name": "",
          "type": "uint256"
        }
      ],
      "stateMutability": "view",
      "type": "function"
    },
    {
      "inputs": [
        {
          "internalType": "uint256",
          "name": "tokenId",
          "type": "uint256"
        }
      ],
      "name": "getApproved",
      "outputs": [
        {
          "internalType": "address",
          "name": "",
          "type": "address"
        }
      ],
      "stateMutability": "view",
      "type": "function"
    },
    {
      "inputs": [
        {
          "internalType": "uint256",
          "name": "tokenId",
          "type": "uint256"
        }
      ],
      "name": "getTokenURI",
      "outputs": [
        {
          "internalType": "string",
          "name": "",
          "type": "string"
        }
      ],
      "stateMutability": "view",
      "type": "function"
    },
    {
      "inputs": [
        {
          "internalType": "address",
          "name": "owner",
          "type": "address"
        },
        {
          "internalType": "address",
          "name": "operator",
          "type": "address"
        }
      ],
      "name": "isApprovedForAll",
      "outputs": [
        {
          "internalType": "bool",
          "name": "",
          "type": "bool"
        }
      ],
      "stateMutability": "view",
      "type": "function"
    },
    {
      "inputs": [],
      "name": "name",
      "outputs": [
        {
          "internalType": "string",
          "name": "",
          "type": "string"
        }
      ],
      "stateMutability": "view",
      "type": "function"
    },
    {
      "inputs": [
        {
          "internalType": "uint256",
          "name": "tokenId",
          "type": "uint256"
        }
      ],
      "name": "ownerOf",
      "outputs": [
        {
          "internalType": "address",
          "name": "",
          "type": "address"
        }
      ],
      "stateMutability": "view",
      "type": "function"
    },
    {
      "inputs": [
        {
          "internalType": "address",
          "name": "to",
          "type": "address"
        },
        {
          "internalType": "string",
          "name": "uri",
          "type": "string"
        }
      ],
      "name": "safeMint",
      "outputs": [],
      "stateMutability": "nonpayable",
      "type": "function"
    },
    {
      "inputs": [
        {
          "internalType": "address",
          "name": "from",
          "type": "address"
        },
        {
          "internalType": "address",
          "name": "to",
          "type": "address"
        },
        {
          "internalType": "uint256",
          "name": "tokenId",
          "type": "uint256"
        }
      ],
      "name": "safeTransferFrom",
      "outputs": [],
      "stateMutability": "nonpayable",
      "type": "function"
    },
    {
      "inputs": [
        {
          "internalType": "address",
          "name": "from",
          "type": "address"
        },
        {
          "internalType": "address",
          "name": "to",
          "type": "address"
        },
        {
          "internalType": "uint256",
          "name": "tokenId",
          "type": "uint256"
        },
        {
          "internalType": "bytes",
          "name": "data",
          "type": "bytes"
        }
      ],
      "name": "safeTransferFrom",
      "outputs": [],
      "stateMutability": "nonpayable",
      "type": "function"
    },
    {
      "inputs": [
        {
          "internalType": "address",
          "name": "operator",
          "type": "address"
        },
        {
          "internalType": "bool",
          "name": "approved",
          "type": "bool"
        }
      ],
      "name": "setApprovalForAll",
      "outputs": [],
      "stateMutability": "nonpayable",
      "type": "function"
    },
    {
      "inputs": [
        {
          "internalType": "bytes4",
          "name": "interfaceId",
          "type": "bytes4"
        }
      ],
      "name": "supportsInterface",
      "outputs": [
        {
          "internalType": "bool",
          "name": "",
          "type": "bool"
        }
      ],
      "stateMutability": "view",
      "type": "function"
    },
    {
      "inputs": [],
      "name": "symbol",
      "outputs": [
        {
          "internalType": "string",
          "name": "",
          "type": "string"
        }
      ],
      "stateMutability": "view",
      "type": "function"
    },
    {
      "inputs": [
        {
          "internalType": "uint256",
          "name": "index",
          "type": "uint256"
        }
      ],
      "name": "tokenByIndex",
      "outputs": [
        {
          "internalType": "uint256",
          "name": "",
          "type": "uint256"
        }
      ],
      "stateMutability": "view",
      "type": "function"
    },
    {
      "inputs": [
        {
          "internalType": "address",
          "name": "owner",
          "type": "address"
        },
        {
          "internalType": "uint256",
          "name": "index",
          "type": "uint256"
        }
      ],
      "name": "tokenOfOwnerByIndex",
      "outputs": [
        {
          "internalType": "uint256",
          "name": "",
          "type": "uint256"
        }
      ],
      "stateMutability": "view",
      "type": "function"
    },
    {
      "inputs": [
        {
          "internalType": "uint256",
          "name": "tokenId",
          "type": "uint256"
        }
      ],
      "name": "tokenURI",
      "outputs": [
        {
          "internalType": "string",
          "name": "",
          "type": "string"
        }
      ],
      "stateMutability": "view",
      "type": "function"
    },
    {
      "inputs": [],
      "name": "totalSupply",
      "outputs": [
        {
          "internalType": "uint256",
          "name": "",
          "type": "uint256"
        }
      ],
      "stateMutability": "view",
      "type": "function"
    },
    {
      "inputs": [
        {
          "internalType": "address",
          "name": "to",
          "type": "address"
        },
        {
          "internalType": "uint256",
          "name": "tokenId",
          "type": "uint256"
        }
      ],
      "name": "transfer",
      "outputs": [],
      "stateMutability": "nonpayable",
      "type": "function"
    },
    {
      "inputs": [
        {
          "internalType": "address",
          "name": "from",
          "type": "address"
        },
        {
          "internalType": "address",
          "name": "to",
          "type": "address"
        },
        {
          "internalType": "uint256",
          "name": "tokenId",
          "type": "uint256"
        }
      ],
      "name": "transferFrom",
      "outputs": [],
      "stateMutability": "nonpayable",
      "type": "function"
    }
  ],
  "bytecode": "0x60806040523480156200001157600080fd5b5060405162003a7838038062003a7883398181016040528101906200003791906200023b565b818181600090816200004a91906200050b565b5080600190816200005c91906200050b565b50505033600c60006101000a81548173ffffffffffffffffffffffffffffffffffffffff021916908373ffffffffffffffffffffffffffffffffffffffff1602179055505050620005f2565b6000604051905090565b600080fd5b600080fd5b600080fd5b600080fd5b6000601f19601f8301169050919050565b7f4e487b7100000000000000000000000000000000000000000000000000000000600052604160045260246000fd5b6200011182620000c6565b810181811067ffffffffffffffff82111715620001335762000132620000d7565b5b80604052505050565b600062000148620000a8565b905062000156828262000106565b919050565b600067ffffffffffffffff821115620001795762000178620000d7565b5b6200018482620000c6565b9050602081019050919050565b60005b83811015620001b157808201518184015260208101905062000194565b60008484015250505050565b6000620001d4620001ce846200015b565b6200013c565b905082815260208101848484011115620001f357620001f2620000c1565b5b6200020084828562000191565b509392505050565b600082601f83011262000220576200021f620000bc565b5b815162000232848260208601620001bd565b91505092915050565b60008060408385031215620002555762000254620000b2565b5b600083015167ffffffffffffffff811115620002765762000275620000b7565b5b620002848582860162000208565b925050602083015167ffffffffffffffff811115620002a857620002a7620000b7565b5b620002b68582860162000208565b9150509250929050565b600081519050919050565b7f4e487b7100000000000000000000000000000000000000000000000000000000600052602260045260246000fd5b600060028204905060018216806200031357607f821691505b602082108103620003295762000328620002cb565b5b50919050565b60008190508160005260206000209050919050565b60006020601f8301049050919050565b600082821b905092915050565b600060088302620003937fffffffffffffffffffffffffffffffffffffffffffffffffffffffffffffffff8262000354565b6200039f868362000354565b95508019841693508086168417925050509392505050565b6000819050919050565b6000819050919050565b6000620003ec620003e6620003e084620003b7565b620003c1565b620003b7565b9050919050565b6000819050919050565b6200040883620003cb565b620004206200041782620003f3565b84845462000361565b825550505050565b600090565b6200043762000428565b62000444818484620003fd565b505050565b5b818110156200046c57620004606000826200042d565b6001810190506200044a565b5050565b601f821115620004bb5762000485816200032f565b620004908462000344565b81016020851015620004a0578190505b620004b8620004af8562000344565b83018262000449565b50505b505050565b600082821c905092915050565b6000620004e060001984600802620004c0565b1980831691505092915050565b6000620004fb8383620004cd565b9150826002028217905092915050565b6200051682620002c0565b67ffffffffffffffff811115620005325762000531620000d7565b5b6200053e8254620002fa565b6200054b82828562000470565b600060209050601f8311600181146200058357600084156200056e578287015190505b6200057a8582620004ed565b865550620005ea565b601f19841662000593866200032f565b60005b82811015620005bd5784890151825560018201915060208501945060208101905062000596565b86831015620005dd5784890151620005d9601f891682620004cd565b8355505b6001600288020188555050505b505050505050565b61347680620006026000396000f3fe608060405234801561001057600080fd5b50600436106101215760003560e01c80634f6ccce7116100ad578063a9059cbb11610071578063a9059cbb14610340578063b88d4fde1461035c578063c87b56dd14610378578063d204c45e146103a8578063e985e9c5146103c457610121565b80634f6ccce7146102765780636352211e146102a657806370a08231146102d657806395d89b4114610306578063a22cb4651461032457610121565b806318160ddd116100f457806318160ddd146101c057806323b872dd146101de5780632f745c59146101fa5780633bb3a24d1461022a57806342842e0e1461025a57610121565b806301ffc9a71461012657806306fdde0314610156578063081812fc14610174578063095ea7b3146101a4575b600080fd5b610140600480360381019061013b91906120ee565b6103f4565b60405161014d9190612136565b60405180910390f35b61015e610406565b60405161016b91906121e1565b60405180910390f35b61018e60048036038101906101899190612239565b610498565b60405161019b91906122a7565b60405180910390f35b6101be60048036038101906101b991906122ee565b6104de565b005b6101c86105f5565b6040516101d5919061233d565b60405180910390f35b6101f860048036038101906101f39190612358565b610602565b005b610214600480360381019061020f91906122ee565b610662565b604051610221919061233d565b60405180910390f35b610244600480360381019061023f9190612239565b610707565b60405161025191906121e1565b60405180910390f35b610274600480360381019061026f9190612358565b610719565b005b610290600480360381019061028b9190612239565b610739565b60405161029d919061233d565b60405180910390f35b6102c060048036038101906102bb9190612239565b6107aa565b6040516102cd91906122a7565b60405180910390f35b6102f060048036038101906102eb91906123ab565b610830565b6040516102fd919061233d565b60405180910390f35b61030e6108e7565b60405161031b91906121e1565b60405180910390f35b61033e60048036038101906103399190612404565b610979565b005b61035a600480360381019061035591906122ee565b61098f565b005b61037660048036038101906103719190612579565b61099e565b005b610392600480360381019061038d9190612239565b610a00565b60405161039f91906121e1565b60405180910390f35b6103c260048036038101906103bd919061269d565b610a12565b005b6103de60048036038101906103d991906126f9565b610a43565b6040516103eb9190612136565b60405180910390f35b60006103ff82610ad7565b9050919050565b60606000805461041590612768565b80601f016020809104026020016040519081016040528092919081815260200182805461044190612768565b801561048e5780601f106104635761010080835404028352916020019161048e565b820191906000526020600020905b81548152906001019060200180831161047157829003601f168201915b5050505050905090565b60006104a382610b51565b6004600083815260200190815260200160002060009054906101000a900473ffffffffffffffffffffffffffffffffffffffff169050919050565b60006104e9826107aa565b90508073ffffffffffffffffffffffffffffffffffffffff168373ffffffffffffffffffffffffffffffffffffffff1603610559576040517f08c379a00000000000000000000000000000000000000000000000000000000081526004016105509061280b565b60405180910390fd5b8073ffffffffffffffffffffffffffffffffffffffff16610578610b9c565b73ffffffffffffffffffffffffffffffffffffffff1614806105a757506105a6816105a1610b9c565b610a43565b5b6105e6576040517f08c379a00000000000000000000000000000000000000000000000000000000081526004016105dd9061289d565b60405180910390fd5b6105f08383610ba4565b505050565b6000600980549050905090565b61061361060d610b9c565b82610c5d565b610652576040517f08c379a00000000000000000000000000000000000000000000000000000000081526004016106499061292f565b60405180910390fd5b61065d838383610cf2565b505050565b600061066d83610830565b82106106ae576040517f08c379a00000000000000000000000000000000000000000000000000000000081526004016106a5906129c1565b60405180910390fd5b600760008473ffffffffffffffffffffffffffffffffffffffff1673ffffffffffffffffffffffffffffffffffffffff168152602001908152602001600020600083815260200190815260200160002054905092915050565b606061071282610a00565b9050919050565b6107348383836040518060200160405280600081525061099e565b505050565b60006107436105f5565b8210610784576040517f08c379a000000000000000000000000000000000000000000000000000000000815260040161077b90612a53565b60405180910390fd5b6009828154811061079857610797612a73565b5b90600052602060002001549050919050565b6000806107b683610feb565b9050600073ffffffffffffffffffffffffffffffffffffffff168173ffffffffffffffffffffffffffffffffffffffff1603610827576040517f08c379a000000000000000000000000000000000000000000000000000000000815260040161081e90612aee565b60405180910390fd5b80915050919050565b60008073ffffffffffffffffffffffffffffffffffffffff168273ffffffffffffffffffffffffffffffffffffffff16036108a0576040517f08c379a000000000000000000000000000000000000000000000000000000000815260040161089790612b80565b60405180910390fd5b600360008373ffffffffffffffffffffffffffffffffffffffff1673ffffffffffffffffffffffffffffffffffffffff168152602001908152602001600020549050919050565b6060600180546108f690612768565b80601f016020809104026020016040519081016040528092919081815260200182805461092290612768565b801561096f5780601f106109445761010080835404028352916020019161096f565b820191906000526020600020905b81548152906001019060200180831161095257829003601f168201915b5050505050905090565b61098b610984610b9c565b8383611028565b5050565b61099a338383610719565b5050565b6109af6109a9610b9c565b83610c5d565b6109ee576040517f08c379a00000000000000000000000000000000000000000000000000000000081526004016109e59061292f565b60405180910390fd5b6109fa84848484611194565b50505050565b6060610a0b826111f0565b9050919050565b6000610a1e600b611302565b9050610a2a600b611310565b610a348382611326565b610a3e8183611344565b505050565b6000600560008473ffffffffffffffffffffffffffffffffffffffff1673ffffffffffffffffffffffffffffffffffffffff16815260200190815260200160002060008373ffffffffffffffffffffffffffffffffffffffff1673ffffffffffffffffffffffffffffffffffffffff16815260200190815260200160002060009054906101000a900460ff16905092915050565b60007f780e9d63000000000000000000000000000000000000000000000000000000007bffffffffffffffffffffffffffffffffffffffffffffffffffffffff1916827bffffffffffffffffffffffffffffffffffffffffffffffffffffffff19161480610b4a5750610b49826113b1565b5b9050919050565b610b5a81611493565b610b99576040517f08c379a0000000000000000000000000000000000000000000000000000000008152600401610b9090612aee565b60405180910390fd5b50565b600033905090565b816004600083815260200190815260200160002060006101000a81548173ffffffffffffffffffffffffffffffffffffffff021916908373ffffffffffffffffffffffffffffffffffffffff160217905550808273ffffffffffffffffffffffffffffffffffffffff16610c17836107aa565b73ffffffffffffffffffffffffffffffffffffffff167f8c5be1e5ebec7d5bd14f71427d1e84f3dd0314c0f7b2291e5b200ac8c7c3b92560405160405180910390a45050565b600080610c69836107aa565b90508073ffffffffffffffffffffffffffffffffffffffff168473ffffffffffffffffffffffffffffffffffffffff161480610cab5750610caa8185610a43565b5b80610ce957508373ffffffffffffffffffffffffffffffffffffffff16610cd184610498565b73ffffffffffffffffffffffffffffffffffffffff16145b91505092915050565b8273ffffffffffffffffffffffffffffffffffffffff16610d12826107aa565b73ffffffffffffffffffffffffffffffffffffffff1614610d68576040517f08c379a0000000000000000000000000000000000000000000000000000000008152600401610d5f90612c12565b60405180910390fd5b600073ffffffffffffffffffffffffffffffffffffffff168273ffffffffffffffffffffffffffffffffffffffff1603610dd7576040517f08c379a0000000000000000000000000000000000000000000000000000000008152600401610dce90612ca4565b60405180910390fd5b610de483838360016114d4565b8273ffffffffffffffffffffffffffffffffffffffff16610e04826107aa565b73ffffffffffffffffffffffffffffffffffffffff1614610e5a576040517f08c379a0000000000000000000000000000000000000000000000000000000008152600401610e5190612c12565b60405180910390fd5b6004600082815260200190815260200160002060006101000a81549073ffffffffffffffffffffffffffffffffffffffff02191690556001600360008573ffffffffffffffffffffffffffffffffffffffff1673ffffffffffffffffffffffffffffffffffffffff168152602001908152602001600020600082825403925050819055506001600360008473ffffffffffffffffffffffffffffffffffffffff1673ffffffffffffffffffffffffffffffffffffffff16815260200190815260200160002060008282540192505081905550816002600083815260200190815260200160002060006101000a81548173ffffffffffffffffffffffffffffffffffffffff021916908373ffffffffffffffffffffffffffffffffffffffff160217905550808273ffffffffffffffffffffffffffffffffffffffff168473ffffffffffffffffffffffffffffffffffffffff167fddf252ad1be2c89b69c2b068fc378daa952ba7f163c4a11628f55a4df523b3ef60405160405180910390a4610fe683838360016114e6565b505050565b60006002600083815260200190815260200160002060009054906101000a900473ffffffffffffffffffffffffffffffffffffffff169050919050565b8173ffffffffffffffffffffffffffffffffffffffff168373ffffffffffffffffffffffffffffffffffffffff1603611096576040517f08c379a000000000000000000000000000000000000000000000000000000000815260040161108d90612d10565b60405180910390fd5b80600560008573ffffffffffffffffffffffffffffffffffffffff1673ffffffffffffffffffffffffffffffffffffffff16815260200190815260200160002060008473ffffffffffffffffffffffffffffffffffffffff1673ffffffffffffffffffffffffffffffffffffffff16815260200190815260200160002060006101000a81548160ff0219169083151502179055508173ffffffffffffffffffffffffffffffffffffffff168373ffffffffffffffffffffffffffffffffffffffff167f17307eab39ab6107e8899845ad3d59bd9653f200f220920489ca2b5937696c31836040516111879190612136565b60405180910390a3505050565b61119f848484610cf2565b6111ab848484846114ec565b6111ea576040517f08c379a00000000000000000000000000000000000000000000000000000000081526004016111e190612da2565b60405180910390fd5b50505050565b60606111fb82610b51565b600060066000848152602001908152602001600020805461121b90612768565b80601f016020809104026020016040519081016040528092919081815260200182805461124790612768565b80156112945780601f1061126957610100808354040283529160200191611294565b820191906000526020600020905b81548152906001019060200180831161127757829003601f168201915b5050505050905060006112a5611673565b905060008151036112ba5781925050506112fd565b6000825111156112ef5780826040516020016112d7929190612dfe565b604051602081830303815290604052925050506112fd565b6112f88461168a565b925050505b919050565b600081600001549050919050565b6001816000016000828254019250508190555050565b6113408282604051806020016040528060008152506116f2565b5050565b61134d82611493565b61138c576040517f08c379a000000000000000000000000000000000000000000000000000000000815260040161138390612e94565b60405180910390fd5b806006600084815260200190815260200160002090816113ac9190613060565b505050565b60007f80ac58cd000000000000000000000000000000000000000000000000000000007bffffffffffffffffffffffffffffffffffffffffffffffffffffffff1916827bffffffffffffffffffffffffffffffffffffffffffffffffffffffff1916148061147c57507f5b5e139f000000000000000000000000000000000000000000000000000000007bffffffffffffffffffffffffffffffffffffffffffffffffffffffff1916827bffffffffffffffffffffffffffffffffffffffffffffffffffffffff1916145b8061148c575061148b8261174d565b5b9050919050565b60008073ffffffffffffffffffffffffffffffffffffffff166114b583610feb565b73ffffffffffffffffffffffffffffffffffffffff1614159050919050565b6114e0848484846117b7565b50505050565b50505050565b600061150d8473ffffffffffffffffffffffffffffffffffffffff16611915565b15611666578373ffffffffffffffffffffffffffffffffffffffff1663150b7a02611536610b9c565b8786866040518563ffffffff1660e01b81526004016115589493929190613187565b6020604051808303816000875af192505050801561159457506040513d601f19601f8201168201806040525081019061159191906131e8565b60015b611616573d80600081146115c4576040519150601f19603f3d011682016040523d82523d6000602084013e6115c9565b606091505b50600081510361160e576040517f08c379a000000000000000000000000000000000000000000000000000000000815260040161160590612da2565b60405180910390fd5b805181602001fd5b63150b7a0260e01b7bffffffffffffffffffffffffffffffffffffffffffffffffffffffff1916817bffffffffffffffffffffffffffffffffffffffffffffffffffffffff19161491505061166b565b600190505b949350505050565b606060405180602001604052806000815250905090565b606061169582610b51565b600061169f611673565b905060008151116116bf57604051806020016040528060008152506116ea565b806116c984611938565b6040516020016116da929190612dfe565b6040516020818303038152906040525b915050919050565b6116fc8383611a06565b61170960008484846114ec565b611748576040517f08c379a000000000000000000000000000000000000000000000000000000000815260040161173f90612da2565b60405180910390fd5b505050565b60007f01ffc9a7000000000000000000000000000000000000000000000000000000007bffffffffffffffffffffffffffffffffffffffffffffffffffffffff1916827bffffffffffffffffffffffffffffffffffffffffffffffffffffffff1916149050919050565b6117c384848484611c23565b6001811115611807576040517f08c379a00000000000000000000000000000000000000000000000000000000081526004016117fe90613287565b60405180910390fd5b6000829050600073ffffffffffffffffffffffffffffffffffffffff168573ffffffffffffffffffffffffffffffffffffffff160361184e5761184981611c29565b61188d565b8373ffffffffffffffffffffffffffffffffffffffff168573ffffffffffffffffffffffffffffffffffffffff161461188c5761188b8582611c72565b5b5b600073ffffffffffffffffffffffffffffffffffffffff168473ffffffffffffffffffffffffffffffffffffffff16036118cf576118ca81611ddf565b61190e565b8473ffffffffffffffffffffffffffffffffffffffff168473ffffffffffffffffffffffffffffffffffffffff161461190d5761190c8482611eb0565b5b5b5050505050565b6000808273ffffffffffffffffffffffffffffffffffffffff163b119050919050565b60606000600161194784611f2f565b01905060008167ffffffffffffffff8111156119665761196561244e565b5b6040519080825280601f01601f1916602001820160405280156119985781602001600182028036833780820191505090505b509050600082602001820190505b6001156119fb578080600190039150507f3031323334353637383961626364656600000000000000000000000000000000600a86061a8153600a85816119ef576119ee6132a7565b5b049450600085036119a6575b819350505050919050565b600073ffffffffffffffffffffffffffffffffffffffff168273ffffffffffffffffffffffffffffffffffffffff1603611a75576040517f08c379a0000000000000000000000000000000000000000000000000000000008152600401611a6c90613322565b60405180910390fd5b611a7e81611493565b15611abe576040517f08c379a0000000000000000000000000000000000000000000000000000000008152600401611ab59061338e565b60405180910390fd5b611acc6000838360016114d4565b611ad581611493565b15611b15576040517f08c379a0000000000000000000000000000000000000000000000000000000008152600401611b0c9061338e565b60405180910390fd5b6001600360008473ffffffffffffffffffffffffffffffffffffffff1673ffffffffffffffffffffffffffffffffffffffff16815260200190815260200160002060008282540192505081905550816002600083815260200190815260200160002060006101000a81548173ffffffffffffffffffffffffffffffffffffffff021916908373ffffffffffffffffffffffffffffffffffffffff160217905550808273ffffffffffffffffffffffffffffffffffffffff16600073ffffffffffffffffffffffffffffffffffffffff167fddf252ad1be2c89b69c2b068fc378daa952ba7f163c4a11628f55a4df523b3ef60405160405180910390a4611c1f6000838360016114e6565b5050565b50505050565b600980549050600a600083815260200190815260200160002081905550600981908060018154018082558091505060019003906000526020600020016000909190919091505550565b60006001611c7f84610830565b611c8991906133dd565b9050600060086000848152602001908152602001600020549050818114611d6e576000600760008673ffffffffffffffffffffffffffffffffffffffff1673ffffffffffffffffffffffffffffffffffffffff168152602001908152602001600020600084815260200190815260200160002054905080600760008773ffffffffffffffffffffffffffffffffffffffff1673ffffffffffffffffffffffffffffffffffffffff168152602001908152602001600020600084815260200190815260200160002081905550816008600083815260200190815260200160002081905550505b6008600084815260200190815260200160002060009055600760008573ffffffffffffffffffffffffffffffffffffffff1673ffffffffffffffffffffffffffffffffffffffff16815260200190815260200160002060008381526020019081526020016000206000905550505050565b60006001600980549050611df391906133dd565b90506000600a6000848152602001908152602001600020549050600060098381548110611e2357611e22612a73565b5b906000526020600020015490508060098381548110611e4557611e44612a73565b5b906000526020600020018190555081600a600083815260200190815260200160002081905550600a6000858152602001908152602001600020600090556009805480611e9457611e93613411565b5b6001900381819060005260206000200160009055905550505050565b6000611ebb83610830565b905081600760008573ffffffffffffffffffffffffffffffffffffffff1673ffffffffffffffffffffffffffffffffffffffff168152602001908152602001600020600083815260200190815260200160002081905550806008600084815260200190815260200160002081905550505050565b600080600090507a184f03e93ff9f4daa797ed6e38ed64bf6a1f0100000000000000008310611f8d577a184f03e93ff9f4daa797ed6e38ed64bf6a1f0100000000000000008381611f8357611f826132a7565b5b0492506040810190505b6d04ee2d6d415b85acef81000000008310611fca576d04ee2d6d415b85acef81000000008381611fc057611fbf6132a7565b5b0492506020810190505b662386f26fc100008310611ff957662386f26fc100008381611fef57611fee6132a7565b5b0492506010810190505b6305f5e1008310612022576305f5e1008381612018576120176132a7565b5b0492506008810190505b612710831061204757612710838161203d5761203c6132a7565b5b0492506004810190505b6064831061206a57606483816120605761205f6132a7565b5b0492506002810190505b600a8310612079576001810190505b80915050919050565b6000604051905090565b600080fd5b600080fd5b60007fffffffff0000000000000000000000000000000000000000000000000000000082169050919050565b6120cb81612096565b81146120d657600080fd5b50565b6000813590506120e8816120c2565b92915050565b6000602082840312156121045761210361208c565b5b6000612112848285016120d9565b91505092915050565b60008115159050919050565b6121308161211b565b82525050565b600060208201905061214b6000830184612127565b92915050565b600081519050919050565b600082825260208201905092915050565b60005b8381101561218b578082015181840152602081019050612170565b60008484015250505050565b6000601f19601f8301169050919050565b60006121b382612151565b6121bd818561215c565b93506121cd81856020860161216d565b6121d681612197565b840191505092915050565b600060208201905081810360008301526121fb81846121a8565b905092915050565b6000819050919050565b61221681612203565b811461222157600080fd5b50565b6000813590506122338161220d565b92915050565b60006020828403121561224f5761224e61208c565b5b600061225d84828501612224565b91505092915050565b600073ffffffffffffffffffffffffffffffffffffffff82169050919050565b600061229182612266565b9050919050565b6122a181612286565b82525050565b60006020820190506122bc6000830184612298565b92915050565b6122cb81612286565b81146122d657600080fd5b50565b6000813590506122e8816122c2565b92915050565b600080604083850312156123055761230461208c565b5b6000612313858286016122d9565b925050602061232485828601612224565b9150509250929050565b61233781612203565b82525050565b6000602082019050612352600083018461232e565b92915050565b6000806000606084860312156123715761237061208c565b5b600061237f868287016122d9565b9350506020612390868287016122d9565b92505060406123a186828701612224565b9150509250925092565b6000602082840312156123c1576123c061208c565b5b60006123cf848285016122d9565b91505092915050565b6123e18161211b565b81146123ec57600080fd5b50565b6000813590506123fe816123d8565b92915050565b6000806040838503121561241b5761241a61208c565b5b6000612429858286016122d9565b925050602061243a858286016123ef565b9150509250929050565b600080fd5b600080fd5b7f4e487b7100000000000000000000000000000000000000000000000000000000600052604160045260246000fd5b61248682612197565b810181811067ffffffffffffffff821117156124a5576124a461244e565b5b80604052505050565b60006124b8612082565b90506124c4828261247d565b919050565b600067ffffffffffffffff8211156124e4576124e361244e565b5b6124ed82612197565b9050602081019050919050565b82818337600083830152505050565b600061251c612517846124c9565b6124ae565b90508281526020810184848401111561253857612537612449565b5b6125438482856124fa565b509392505050565b600082601f8301126125605761255f612444565b5b8135612570848260208601612509565b91505092915050565b600080600080608085870312156125935761259261208c565b5b60006125a1878288016122d9565b94505060206125b2878288016122d9565b93505060406125c387828801612224565b925050606085013567ffffffffffffffff8111156125e4576125e3612091565b5b6125f08782880161254b565b91505092959194509250565b600067ffffffffffffffff8211156126175761261661244e565b5b61262082612197565b9050602081019050919050565b600061264061263b846125fc565b6124ae565b90508281526020810184848401111561265c5761265b612449565b5b6126678482856124fa565b509392505050565b600082601f83011261268457612683612444565b5b813561269484826020860161262d565b91505092915050565b600080604083850312156126b4576126b361208c565b5b60006126c2858286016122d9565b925050602083013567ffffffffffffffff8111156126e3576126e2612091565b5b6126ef8582860161266f565b9150509250929050565b600080604083850312156127105761270f61208c565b5b600061271e858286016122d9565b925050602061272f858286016122d9565b9150509250929050565b7f4e487b7100000000000000000000000000000000000000000000000000000000600052602260045260246000fd5b6000600282049050600182168061278057607f821691505b60208210810361279357612792612739565b5b50919050565b7f4552433732313a20617070726f76616c20746f2063757272656e74206f776e6560008201527f7200000000000000000000000000000000000000000000000000000000000000602082015250565b60006127f560218361215c565b915061280082612799565b604082019050919050565b60006020820190508181036000830152612824816127e8565b9050919050565b7f4552433732313a20617070726f76652063616c6c6572206973206e6f7420746f60008201527f6b656e206f776e6572206f7220617070726f76656420666f7220616c6c000000602082015250565b6000612887603d8361215c565b91506128928261282b565b604082019050919050565b600060208201905081810360008301526128b68161287a565b9050919050565b7f4552433732313a2063616c6c6572206973206e6f7420746f6b656e206f776e6560008201527f72206f7220617070726f76656400000000000000000000000000000000000000602082015250565b6000612919602d8361215c565b9150612924826128bd565b604082019050919050565b600060208201905081810360008301526129488161290c565b9050919050565b7f455243373231456e756d657261626c653a206f776e657220696e646578206f7560008201527f74206f6620626f756e6473000000000000000000000000000000000000000000602082015250565b60006129ab602b8361215c565b91506129b68261294f565b604082019050919050565b600060208201905081810360008301526129da8161299e565b9050919050565b7f455243373231456e756d657261626c653a20676c6f62616c20696e646578206f60008201527f7574206f6620626f756e64730000000000000000000000000000000000000000602082015250565b6000612a3d602c8361215c565b9150612a48826129e1565b604082019050919050565b60006020820190508181036000830152612a6c81612a30565b9050919050565b7f4e487b7100000000000000000000000000000000000000000000000000000000600052603260045260246000fd5b7f4552433732313a20696e76616c696420746f6b656e2049440000000000000000600082015250565b6000612ad860188361215c565b9150612ae382612aa2565b602082019050919050565b60006020820190508181036000830152612b0781612acb565b9050919050565b7f4552433732313a2061646472657373207a65726f206973206e6f74206120766160008201527f6c6964206f776e65720000000000000000000000000000000000000000000000602082015250565b6000612b6a60298361215c565b9150612b7582612b0e565b604082019050919050565b60006020820190508181036000830152612b9981612b5d565b9050919050565b7f4552433732313a207472616e736665722066726f6d20696e636f72726563742060008201527f6f776e6572000000000000000000000000000000000000000000000000000000602082015250565b6000612bfc60258361215c565b9150612c0782612ba0565b604082019050919050565b60006020820190508181036000830152612c2b81612bef565b9050919050565b7f4552433732313a207472616e7366657220746f20746865207a65726f2061646460008201527f7265737300000000000000000000000000000000000000000000000000000000602082015250565b6000612c8e60248361215c565b9150612c9982612c32565b604082019050919050565b60006020820190508181036000830152612cbd81612c81565b9050919050565b7f4552433732313a20617070726f766520746f2063616c6c657200000000000000600082015250565b6000612cfa60198361215c565b9150612d0582612cc4565b602082019050919050565b60006020820190508181036000830152612d2981612ced565b9050919050565b7f4552433732313a207472616e7366657220746f206e6f6e20455243373231526560008201527f63656976657220696d706c656d656e7465720000000000000000000000000000602082015250565b6000612d8c60328361215c565b9150612d9782612d30565b604082019050919050565b60006020820190508181036000830152612dbb81612d7f565b9050919050565b600081905092915050565b6000612dd882612151565b612de28185612dc2565b9350612df281856020860161216d565b80840191505092915050565b6000612e0a8285612dcd565b9150612e168284612dcd565b91508190509392505050565b7f45524337323155524953746f726167653a2055524920736574206f66206e6f6e60008201527f6578697374656e7420746f6b656e000000000000000000000000000000000000602082015250565b6000612e7e602e8361215c565b9150612e8982612e22565b604082019050919050565b60006020820190508181036000830152612ead81612e71565b9050919050565b60008190508160005260206000209050919050565b60006020601f8301049050919050565b600082821b905092915050565b600060088302612f167fffffffffffffffffffffffffffffffffffffffffffffffffffffffffffffffff82612ed9565b612f208683612ed9565b95508019841693508086168417925050509392505050565b6000819050919050565b6000612f5d612f58612f5384612203565b612f38565b612203565b9050919050565b6000819050919050565b612f7783612f42565b612f8b612f8382612f64565b848454612ee6565b825550505050565b600090565b612fa0612f93565b612fab818484612f6e565b505050565b5b81811015612fcf57612fc4600082612f98565b600181019050612fb1565b5050565b601f82111561301457612fe581612eb4565b612fee84612ec9565b81016020851015612ffd578190505b61301161300985612ec9565b830182612fb0565b50505b505050565b600082821c905092915050565b600061303760001984600802613019565b1980831691505092915050565b60006130508383613026565b9150826002028217905092915050565b61306982612151565b67ffffffffffffffff8111156130825761308161244e565b5b61308c8254612768565b613097828285612fd3565b600060209050601f8311600181146130ca57600084156130b8578287015190505b6130c28582613044565b86555061312a565b601f1984166130d886612eb4565b60005b82811015613100578489015182556001820191506020850194506020810190506130db565b8683101561311d5784890151613119601f891682613026565b8355505b6001600288020188555050505b505050505050565b600081519050919050565b600082825260208201905092915050565b600061315982613132565b613163818561313d565b935061317381856020860161216d565b61317c81612197565b840191505092915050565b600060808201905061319c6000830187612298565b6131a96020830186612298565b6131b6604083018561232e565b81810360608301526131c8818461314e565b905095945050505050565b6000815190506131e2816120c2565b92915050565b6000602082840312156131fe576131fd61208c565b5b600061320c848285016131d3565b91505092915050565b7f455243373231456e756d657261626c653a20636f6e736563757469766520747260008201527f616e7366657273206e6f7420737570706f727465640000000000000000000000602082015250565b600061327160358361215c565b915061327c82613215565b604082019050919050565b600060208201905081810360008301526132a081613264565b9050919050565b7f4e487b7100000000000000000000000000000000000000000000000000000000600052601260045260246000fd5b7f4552433732313a206d696e7420746f20746865207a65726f2061646472657373600082015250565b600061330c60208361215c565b9150613317826132d6565b602082019050919050565b6000602082019050818103600083015261333b816132ff565b9050919050565b7f4552433732313a20746f6b656e20616c7265616479206d696e74656400000000600082015250565b6000613378601c8361215c565b915061338382613342565b602082019050919050565b600060208201905081810360008301526133a78161336b565b9050919050565b7f4e487b7100000000000000000000000000000000000000000000000000000000600052601160045260246000fd5b60006133e882612203565b91506133f383612203565b925082820390508181111561340b5761340a6133ae565b5b92915050565b7f4e487b7100000000000000000000000000000000000000000000000000000000600052603160045260246000fdfea2646970667358221220615b0a689f5af39238892b71393fb171f80de422602ce9ba5b4936d1641f815464736f6c63430008120033",
  "linkReferences": {},
  "deployedLinkReferences": {}
}