{
  "_format": "hh-sol-artifact-1",
  "address": "0x9fE46736679d2D9a65F0992F2272dE9f3c7fa6e0",
  "contractName": "Staking",
  "sourceName": "contracts/Staking.sol",
  "abi": [
    {
      "inputs": [
        {
          "internalType": "address",
          "name": "nft",
          "type": "address"
        },
        {
          "internalType": "address",
          "name": "token",
          "type": "address"
        }
      ],
      "stateMutability": "nonpayable",
      "type": "constructor"
    },
    {
      "inputs": [],
      "name": "EMISSION_RATE",
      "outputs": [
        {
          "internalType": "uint256",
          "name": "",
          "type": "uint256"
        }
      ],
      "stateMutability": "view",
      "type": "function"
    },
    {
      "inputs": [],
      "name": "buidlNFT",
      "outputs": [
        {
          "internalType": "contract IERC721",
          "name": "",
          "type": "address"
        }
      ],
      "stateMutability": "view",
      "type": "function"
    },
    {
      "inputs": [],
      "name": "buidlToken",
      "outputs": [
        {
          "internalType": "contract BUIDLToken",
          "name": "",
          "type": "address"
        }
      ],
      "stateMutability": "view",
      "type": "function"
    },
    {
      "inputs": [
        {
          "internalType": "address",
          "name": "staker",
          "type": "address"
        }
      ],
      "name": "calculateReward",
      "outputs": [
        {
          "internalType": "uint256",
          "name": "",
          "type": "uint256"
        }
      ],
      "stateMutability": "view",
      "type": "function"
    },
    {
      "inputs": [
        {
          "internalType": "address",
          "name": "",
          "type": "address"
        },
        {
          "internalType": "address",
          "name": "",
          "type": "address"
        },
        {
          "internalType": "uint256",
          "name": "",
          "type": "uint256"
        },
        {
          "internalType": "bytes",
          "name": "",
          "type": "bytes"
        }
      ],
      "name": "onERC721Received",
      "outputs": [
        {
          "internalType": "bytes4",
          "name": "",
          "type": "bytes4"
        }
      ],
      "stateMutability": "nonpayable",
      "type": "function"
    },
    {
      "inputs": [
        {
          "internalType": "uint256",
          "name": "tokenId",
          "type": "uint256"
        }
      ],
      "name": "stakeNFT",
      "outputs": [],
      "stateMutability": "nonpayable",
      "type": "function"
    },
    {
      "inputs": [
        {
          "internalType": "address",
          "name": "",
          "type": "address"
        }
      ],
      "name": "stakeTokenId",
      "outputs": [
        {
          "internalType": "uint256",
          "name": "",
          "type": "uint256"
        }
      ],
      "stateMutability": "view",
      "type": "function"
    },
    {
      "inputs": [
        {
          "internalType": "address",
          "name": "",
          "type": "address"
        }
      ],
      "name": "tokenStakedAt",
      "outputs": [
        {
          "internalType": "uint256",
          "name": "",
          "type": "uint256"
        }
      ],
      "stateMutability": "view",
      "type": "function"
    },
    {
      "inputs": [
        {
          "internalType": "uint256",
          "name": "tokenId",
          "type": "uint256"
        }
      ],
      "name": "unStakeNFT",
      "outputs": [],
      "stateMutability": "nonpayable",
      "type": "function"
    }
  ],
  "bytecode": "0x608060405262015180670de0b6b3a76400006200001d919062000115565b6003553480156200002d57600080fd5b50604051620010ad380380620010ad8339818101604052810190620000539190620001b7565b816000806101000a81548173ffffffffffffffffffffffffffffffffffffffff021916908373ffffffffffffffffffffffffffffffffffffffff16021790555080600160006101000a81548173ffffffffffffffffffffffffffffffffffffffff021916908373ffffffffffffffffffffffffffffffffffffffff1602179055505050620001fe565b6000819050919050565b7f4e487b7100000000000000000000000000000000000000000000000000000000600052601260045260246000fd5b60006200012282620000dc565b91506200012f83620000dc565b925082620001425762000141620000e6565b5b828204905092915050565b600080fd5b600073ffffffffffffffffffffffffffffffffffffffff82169050919050565b60006200017f8262000152565b9050919050565b620001918162000172565b81146200019d57600080fd5b50565b600081519050620001b18162000186565b92915050565b60008060408385031215620001d157620001d06200014d565b5b6000620001e185828601620001a0565b9250506020620001f485828601620001a0565b9150509250929050565b610e9f806200020e6000396000f3fe608060405234801561001057600080fd5b50600436106100935760003560e01c806375aca7021161006657806375aca70214610132578063a679c2ff14610150578063b935195c1461016c578063d82e39621461018a578063e8cf70e3146101ba57610093565b806301b8199a14610098578063150b7a02146100b657806319551d35146100e65780636eb604e014610116575b600080fd5b6100a06101ea565b6040516100ad91906107d6565b60405180910390f35b6100d060048036038101906100cb91906109d5565b6101f0565b6040516100dd9190610a93565b60405180910390f35b61010060048036038101906100fb9190610aae565b610204565b60405161010d91906107d6565b60405180910390f35b610130600480360381019061012b9190610adb565b61021c565b005b61013a61043d565b6040516101479190610b67565b60405180910390f35b61016a60048036038101906101659190610adb565b610461565b005b610174610697565b6040516101819190610ba3565b60405180910390f35b6101a4600480360381019061019f9190610aae565b6106bd565b6040516101b191906107d6565b60405180910390f35b6101d460048036038101906101cf9190610aae565b6107a5565b6040516101e191906107d6565b60405180910390f35b60035481565b600063150b7a0260e01b9050949350505050565b60046020528060005260406000206000915090505481565b3373ffffffffffffffffffffffffffffffffffffffff1660008054906101000a900473ffffffffffffffffffffffffffffffffffffffff1673ffffffffffffffffffffffffffffffffffffffff16636352211e836040518263ffffffff1660e01b815260040161028c91906107d6565b602060405180830381865afa1580156102a9573d6000803e3d6000fd5b505050506040513d601f19601f820116820180604052508101906102cd9190610bd3565b73ffffffffffffffffffffffffffffffffffffffff1614610323576040517f08c379a000000000000000000000000000000000000000000000000000000000815260040161031a90610c5d565b60405180910390fd5b60008054906101000a900473ffffffffffffffffffffffffffffffffffffffff1673ffffffffffffffffffffffffffffffffffffffff166342842e0e3330846040518463ffffffff1660e01b815260040161038093929190610c8c565b600060405180830381600087803b15801561039a57600080fd5b505af11580156103ae573d6000803e3d6000fd5b5050505042600460003373ffffffffffffffffffffffffffffffffffffffff1673ffffffffffffffffffffffffffffffffffffffff1681526020019081526020016000208190555080600560003373ffffffffffffffffffffffffffffffffffffffff1673ffffffffffffffffffffffffffffffffffffffff1681526020019081526020016000208190555050565b60008054906101000a900473ffffffffffffffffffffffffffffffffffffffff1681565b80600560003373ffffffffffffffffffffffffffffffffffffffff1673ffffffffffffffffffffffffffffffffffffffff16815260200190815260200160002054146104e2576040517f08c379a00000000000000000000000000000000000000000000000000000000081526004016104d990610d0f565b60405180910390fd5b60006104ed336106bd565b905060008054906101000a900473ffffffffffffffffffffffffffffffffffffffff1673ffffffffffffffffffffffffffffffffffffffff166342842e0e3033856040518463ffffffff1660e01b815260040161054c93929190610c8c565b600060405180830381600087803b15801561056657600080fd5b505af115801561057a573d6000803e3d6000fd5b50505050600160009054906101000a900473ffffffffffffffffffffffffffffffffffffffff1673ffffffffffffffffffffffffffffffffffffffff1663f0dda65c33836040518363ffffffff1660e01b81526004016105db929190610d2f565b600060405180830381600087803b1580156105f557600080fd5b505af1158015610609573d6000803e3d6000fd5b50505050600560003373ffffffffffffffffffffffffffffffffffffffff1673ffffffffffffffffffffffffffffffffffffffff16815260200190815260200160002060009055600460003373ffffffffffffffffffffffffffffffffffffffff1673ffffffffffffffffffffffffffffffffffffffff168152602001908152602001600020600090555050565b600160009054906101000a900473ffffffffffffffffffffffffffffffffffffffff1681565b600080600460008473ffffffffffffffffffffffffffffffffffffffff1673ffffffffffffffffffffffffffffffffffffffff1681526020019081526020016000205403610740576040517f08c379a000000000000000000000000000000000000000000000000000000000815260040161073790610da4565b60405180910390fd5b6000600460008473ffffffffffffffffffffffffffffffffffffffff1673ffffffffffffffffffffffffffffffffffffffff168152602001908152602001600020544261078d9190610df3565b90506003548161079d9190610e27565b915050919050565b60056020528060005260406000206000915090505481565b6000819050919050565b6107d0816107bd565b82525050565b60006020820190506107eb60008301846107c7565b92915050565b6000604051905090565b600080fd5b600080fd5b600073ffffffffffffffffffffffffffffffffffffffff82169050919050565b600061083082610805565b9050919050565b61084081610825565b811461084b57600080fd5b50565b60008135905061085d81610837565b92915050565b61086c816107bd565b811461087757600080fd5b50565b60008135905061088981610863565b92915050565b600080fd5b600080fd5b6000601f19601f8301169050919050565b7f4e487b7100000000000000000000000000000000000000000000000000000000600052604160045260246000fd5b6108e282610899565b810181811067ffffffffffffffff82111715610901576109006108aa565b5b80604052505050565b60006109146107f1565b905061092082826108d9565b919050565b600067ffffffffffffffff8211156109405761093f6108aa565b5b61094982610899565b9050602081019050919050565b82818337600083830152505050565b600061097861097384610925565b61090a565b90508281526020810184848401111561099457610993610894565b5b61099f848285610956565b509392505050565b600082601f8301126109bc576109bb61088f565b5b81356109cc848260208601610965565b91505092915050565b600080600080608085870312156109ef576109ee6107fb565b5b60006109fd8782880161084e565b9450506020610a0e8782880161084e565b9350506040610a1f8782880161087a565b925050606085013567ffffffffffffffff811115610a4057610a3f610800565b5b610a4c878288016109a7565b91505092959194509250565b60007fffffffff0000000000000000000000000000000000000000000000000000000082169050919050565b610a8d81610a58565b82525050565b6000602082019050610aa86000830184610a84565b92915050565b600060208284031215610ac457610ac36107fb565b5b6000610ad28482850161084e565b91505092915050565b600060208284031215610af157610af06107fb565b5b6000610aff8482850161087a565b91505092915050565b6000819050919050565b6000610b2d610b28610b2384610805565b610b08565b610805565b9050919050565b6000610b3f82610b12565b9050919050565b6000610b5182610b34565b9050919050565b610b6181610b46565b82525050565b6000602082019050610b7c6000830184610b58565b92915050565b6000610b8d82610b34565b9050919050565b610b9d81610b82565b82525050565b6000602082019050610bb86000830184610b94565b92915050565b600081519050610bcd81610837565b92915050565b600060208284031215610be957610be86107fb565b5b6000610bf784828501610bbe565b91505092915050565b600082825260208201905092915050565b7f4552523a4e4f0000000000000000000000000000000000000000000000000000600082015250565b6000610c47600683610c00565b9150610c5282610c11565b602082019050919050565b60006020820190508181036000830152610c7681610c3a565b9050919050565b610c8681610825565b82525050565b6000606082019050610ca16000830186610c7d565b610cae6020830185610c7d565b610cbb60408301846107c7565b949350505050565b7f4552523a4e590000000000000000000000000000000000000000000000000000600082015250565b6000610cf9600683610c00565b9150610d0482610cc3565b602082019050919050565b60006020820190508181036000830152610d2881610cec565b9050919050565b6000604082019050610d446000830185610c7d565b610d5160208301846107c7565b9392505050565b7f4552523a4e530000000000000000000000000000000000000000000000000000600082015250565b6000610d8e600683610c00565b9150610d9982610d58565b602082019050919050565b60006020820190508181036000830152610dbd81610d81565b9050919050565b7f4e487b7100000000000000000000000000000000000000000000000000000000600052601160045260246000fd5b6000610dfe826107bd565b9150610e09836107bd565b9250828203905081811115610e2157610e20610dc4565b5b92915050565b6000610e32826107bd565b9150610e3d836107bd565b9250828202610e4b816107bd565b91508282048414831517610e6257610e61610dc4565b5b509291505056fea264697066735822122090cd81951ecb3cfc9dd0eeb6695fa9b593bd84ac52395260f3fd0792e25175c264736f6c63430008120033",
  "linkReferences": {},
  "deployedLinkReferences": {}
}