{
	"_format": "hh-sol-artifact-1",
	"contractName": "Buidl_NFT",
	"sourceName": "contracts/Buidl_NFT.sol",
	"abi": [
		{
			"inputs": [
				{
					"internalType": "string",
					"name": "name",
					"type": "string"
				},
				{
					"internalType": "string",
					"name": "symbol",
					"type": "string"
				}
			],
			"stateMutability": "nonpayable",
			"type": "constructor"
		},
		{
			"anonymous": false,
			"inputs": [
				{
					"indexed": true,
					"internalType": "address",
					"name": "owner",
					"type": "address"
				},
				{
					"indexed": true,
					"internalType": "address",
					"name": "approved",
					"type": "address"
				},
				{
					"indexed": true,
					"internalType": "uint256",
					"name": "tokenId",
					"type": "uint256"
				}
			],
			"name": "Approval",
			"type": "event"
		},
		{
			"anonymous": false,
			"inputs": [
				{
					"indexed": true,
					"internalType": "address",
					"name": "owner",
					"type": "address"
				},
				{
					"indexed": true,
					"internalType": "address",
					"name": "operator",
					"type": "address"
				},
				{
					"indexed": false,
					"internalType": "bool",
					"name": "approved",
					"type": "bool"
				}
			],
			"name": "ApprovalForAll",
			"type": "event"
		},
		{
			"anonymous": false,
			"inputs": [
				{
					"indexed": true,
					"internalType": "address",
					"name": "from",
					"type": "address"
				},
				{
					"indexed": true,
					"internalType": "address",
					"name": "to",
					"type": "address"
				},
				{
					"indexed": true,
					"internalType": "uint256",
					"name": "tokenId",
					"type": "uint256"
				}
			],
			"name": "Transfer",
			"type": "event"
		},
		{
			"inputs": [
				{
					"internalType": "address",
					"name": "to",
					"type": "address"
				},
				{
					"internalType": "uint256",
					"name": "tokenId",
					"type": "uint256"
				}
			],
			"name": "approve",
			"outputs": [],
			"stateMutability": "nonpayable",
			"type": "function"
		},
		{
			"inputs": [
				{
					"internalType": "address",
					"name": "owner",
					"type": "address"
				}
			],
			"name": "balanceOf",
			"outputs": [
				{
					"internalType": "uint256",
					"name": "",
					"type": "uint256"
				}
			],
			"stateMutability": "view",
			"type": "function"
		},
		{
			"inputs": [
				{
					"internalType": "uint256",
					"name": "tokenId",
					"type": "uint256"
				}
			],
			"name": "getApproved",
			"outputs": [
				{
					"internalType": "address",
					"name": "",
					"type": "address"
				}
			],
			"stateMutability": "view",
			"type": "function"
		},
		{
			"inputs": [
				{
					"internalType": "address",
					"name": "owner",
					"type": "address"
				},
				{
					"internalType": "address",
					"name": "operator",
					"type": "address"
				}
			],
			"name": "isApprovedForAll",
			"outputs": [
				{
					"internalType": "bool",
					"name": "",
					"type": "bool"
				}
			],
			"stateMutability": "view",
			"type": "function"
		},
		{
			"inputs": [
				{
					"internalType": "address",
					"name": "to",
					"type": "address"
				},
				{
					"internalType": "string",
					"name": "uri",
					"type": "string"
				}
			],
			"name": "mintNFT",
			"outputs": [],
			"stateMutability": "nonpayable",
			"type": "function"
		},
		{
			"inputs": [],
			"name": "name",
			"outputs": [
				{
					"internalType": "string",
					"name": "",
					"type": "string"
				}
			],
			"stateMutability": "view",
			"type": "function"
		},
		{
			"inputs": [
				{
					"internalType": "uint256",
					"name": "tokenId",
					"type": "uint256"
				}
			],
			"name": "ownerOf",
			"outputs": [
				{
					"internalType": "address",
					"name": "",
					"type": "address"
				}
			],
			"stateMutability": "view",
			"type": "function"
		},
		{
			"inputs": [
				{
					"internalType": "address",
					"name": "from",
					"type": "address"
				},
				{
					"internalType": "address",
					"name": "to",
					"type": "address"
				},
				{
					"internalType": "uint256",
					"name": "tokenId",
					"type": "uint256"
				}
			],
			"name": "safeTransferFrom",
			"outputs": [],
			"stateMutability": "nonpayable",
			"type": "function"
		},
		{
			"inputs": [
				{
					"internalType": "address",
					"name": "from",
					"type": "address"
				},
				{
					"internalType": "address",
					"name": "to",
					"type": "address"
				},
				{
					"internalType": "uint256",
					"name": "tokenId",
					"type": "uint256"
				},
				{
					"internalType": "bytes",
					"name": "data",
					"type": "bytes"
				}
			],
			"name": "safeTransferFrom",
			"outputs": [],
			"stateMutability": "nonpayable",
			"type": "function"
		},
		{
			"inputs": [
				{
					"internalType": "address",
					"name": "operator",
					"type": "address"
				},
				{
					"internalType": "bool",
					"name": "approved",
					"type": "bool"
				}
			],
			"name": "setApprovalForAll",
			"outputs": [],
			"stateMutability": "nonpayable",
			"type": "function"
		},
		{
			"inputs": [
				{
					"internalType": "bytes4",
					"name": "interfaceId",
					"type": "bytes4"
				}
			],
			"name": "supportsInterface",
			"outputs": [
				{
					"internalType": "bool",
					"name": "",
					"type": "bool"
				}
			],
			"stateMutability": "view",
			"type": "function"
		},
		{
			"inputs": [],
			"name": "symbol",
			"outputs": [
				{
					"internalType": "string",
					"name": "",
					"type": "string"
				}
			],
			"stateMutability": "view",
			"type": "function"
		},
		{
			"inputs": [
				{
					"internalType": "uint256",
					"name": "index",
					"type": "uint256"
				}
			],
			"name": "tokenByIndex",
			"outputs": [
				{
					"internalType": "uint256",
					"name": "",
					"type": "uint256"
				}
			],
			"stateMutability": "view",
			"type": "function"
		},
		{
			"inputs": [
				{
					"internalType": "address",
					"name": "owner",
					"type": "address"
				},
				{
					"internalType": "uint256",
					"name": "index",
					"type": "uint256"
				}
			],
			"name": "tokenOfOwnerByIndex",
			"outputs": [
				{
					"internalType": "uint256",
					"name": "",
					"type": "uint256"
				}
			],
			"stateMutability": "view",
			"type": "function"
		},
		{
			"inputs": [
				{
					"internalType": "uint256",
					"name": "tokenId",
					"type": "uint256"
				}
			],
			"name": "tokenURI",
			"outputs": [
				{
					"internalType": "string",
					"name": "",
					"type": "string"
				}
			],
			"stateMutability": "view",
			"type": "function"
		},
		{
			"inputs": [],
			"name": "totalSupply",
			"outputs": [
				{
					"internalType": "uint256",
					"name": "",
					"type": "uint256"
				}
			],
			"stateMutability": "view",
			"type": "function"
		},
		{
			"inputs": [
				{
					"internalType": "uint256",
					"name": "tokenId",
					"type": "uint256"
				},
				{
					"internalType": "address",
					"name": "to",
					"type": "address"
				}
			],
			"name": "transfer",
			"outputs": [],
			"stateMutability": "nonpayable",
			"type": "function"
		},
		{
			"inputs": [
				{
					"internalType": "address",
					"name": "from",
					"type": "address"
				},
				{
					"internalType": "address",
					"name": "to",
					"type": "address"
				},
				{
					"internalType": "uint256",
					"name": "tokenId",
					"type": "uint256"
				}
			],
			"name": "transferFrom",
			"outputs": [],
			"stateMutability": "nonpayable",
			"type": "function"
		}
	],
	"bytecode": "0x60806040523480156200001157600080fd5b5060405162003b6738038062003b6783398181016040528101906200003791906200023b565b818181600090816200004a91906200050b565b5080600190816200005c91906200050b565b50505033600c60006101000a81548173ffffffffffffffffffffffffffffffffffffffff021916908373ffffffffffffffffffffffffffffffffffffffff1602179055505050620005f2565b6000604051905090565b600080fd5b600080fd5b600080fd5b600080fd5b6000601f19601f8301169050919050565b7f4e487b7100000000000000000000000000000000000000000000000000000000600052604160045260246000fd5b6200011182620000c6565b810181811067ffffffffffffffff82111715620001335762000132620000d7565b5b80604052505050565b600062000148620000a8565b905062000156828262000106565b919050565b600067ffffffffffffffff821115620001795762000178620000d7565b5b6200018482620000c6565b9050602081019050919050565b60005b83811015620001b157808201518184015260208101905062000194565b60008484015250505050565b6000620001d4620001ce846200015b565b6200013c565b905082815260208101848484011115620001f357620001f2620000c1565b5b6200020084828562000191565b509392505050565b600082601f83011262000220576200021f620000bc565b5b815162000232848260208601620001bd565b91505092915050565b60008060408385031215620002555762000254620000b2565b5b600083015167ffffffffffffffff811115620002765762000275620000b7565b5b620002848582860162000208565b925050602083015167ffffffffffffffff811115620002a857620002a7620000b7565b5b620002b68582860162000208565b9150509250929050565b600081519050919050565b7f4e487b7100000000000000000000000000000000000000000000000000000000600052602260045260246000fd5b600060028204905060018216806200031357607f821691505b602082108103620003295762000328620002cb565b5b50919050565b60008190508160005260206000209050919050565b60006020601f8301049050919050565b600082821b905092915050565b600060088302620003937fffffffffffffffffffffffffffffffffffffffffffffffffffffffffffffffff8262000354565b6200039f868362000354565b95508019841693508086168417925050509392505050565b6000819050919050565b6000819050919050565b6000620003ec620003e6620003e084620003b7565b620003c1565b620003b7565b9050919050565b6000819050919050565b6200040883620003cb565b620004206200041782620003f3565b84845462000361565b825550505050565b600090565b6200043762000428565b62000444818484620003fd565b505050565b5b818110156200046c57620004606000826200042d565b6001810190506200044a565b5050565b601f821115620004bb5762000485816200032f565b620004908462000344565b81016020851015620004a0578190505b620004b8620004af8562000344565b83018262000449565b50505b505050565b600082821c905092915050565b6000620004e060001984600802620004c0565b1980831691505092915050565b6000620004fb8383620004cd565b9150826002028217905092915050565b6200051682620002c0565b67ffffffffffffffff811115620005325762000531620000d7565b5b6200053e8254620002fa565b6200054b82828562000470565b600060209050601f8311600181146200058357600084156200056e578287015190505b6200057a8582620004ed565b865550620005ea565b601f19841662000593866200032f565b60005b82811015620005bd5784890151825560018201915060208501945060208101905062000596565b86831015620005dd5784890151620005d9601f891682620004cd565b8355505b6001600288020188555050505b505050505050565b61356580620006026000396000f3fe608060405234801561001057600080fd5b50600436106101165760003560e01c80636352211e116100a2578063b7760c8f11610071578063b7760c8f14610305578063b88d4fde14610321578063c87b56dd1461033d578063e985e9c51461036d578063eacabe141461039d57610116565b80636352211e1461026b57806370a082311461029b57806395d89b41146102cb578063a22cb465146102e957610116565b806318160ddd116100e957806318160ddd146101b557806323b872dd146101d35780632f745c59146101ef57806342842e0e1461021f5780634f6ccce71461023b57610116565b806301ffc9a71461011b57806306fdde031461014b578063081812fc14610169578063095ea7b314610199575b600080fd5b61013560048036038101906101309190612131565b6103b9565b6040516101429190612179565b60405180910390f35b6101536103cb565b6040516101609190612224565b60405180910390f35b610183600480360381019061017e919061227c565b61045d565b60405161019091906122ea565b60405180910390f35b6101b360048036038101906101ae9190612331565b6104a3565b005b6101bd6105ba565b6040516101ca9190612380565b60405180910390f35b6101ed60048036038101906101e8919061239b565b6105c7565b005b61020960048036038101906102049190612331565b610627565b6040516102169190612380565b60405180910390f35b6102396004803603810190610234919061239b565b6106cc565b005b6102556004803603810190610250919061227c565b6106ec565b6040516102629190612380565b60405180910390f35b6102856004803603810190610280919061227c565b61075d565b60405161029291906122ea565b60405180910390f35b6102b560048036038101906102b091906123ee565b6107e3565b6040516102c29190612380565b60405180910390f35b6102d361089a565b6040516102e09190612224565b60405180910390f35b61030360048036038101906102fe9190612447565b61092c565b005b61031f600480360381019061031a9190612487565b610942565b005b61033b600480360381019061033691906125fc565b610951565b005b6103576004803603810190610352919061227c565b6109b3565b6040516103649190612224565b60405180910390f35b6103876004803603810190610382919061267f565b6109c5565b6040516103949190612179565b60405180910390f35b6103b760048036038101906103b29190612760565b610a59565b005b60006103c482610b1a565b9050919050565b6060600080546103da906127eb565b80601f0160208091040260200160405190810160405280929190818152602001828054610406906127eb565b80156104535780601f1061042857610100808354040283529160200191610453565b820191906000526020600020905b81548152906001019060200180831161043657829003601f168201915b5050505050905090565b600061046882610b94565b6004600083815260200190815260200160002060009054906101000a900473ffffffffffffffffffffffffffffffffffffffff169050919050565b60006104ae8261075d565b90508073ffffffffffffffffffffffffffffffffffffffff168373ffffffffffffffffffffffffffffffffffffffff160361051e576040517f08c379a00000000000000000000000000000000000000000000000000000000081526004016105159061288e565b60405180910390fd5b8073ffffffffffffffffffffffffffffffffffffffff1661053d610bdf565b73ffffffffffffffffffffffffffffffffffffffff16148061056c575061056b81610566610bdf565b6109c5565b5b6105ab576040517f08c379a00000000000000000000000000000000000000000000000000000000081526004016105a290612920565b60405180910390fd5b6105b58383610be7565b505050565b6000600980549050905090565b6105d86105d2610bdf565b82610ca0565b610617576040517f08c379a000000000000000000000000000000000000000000000000000000000815260040161060e906129b2565b60405180910390fd5b610622838383610d35565b505050565b6000610632836107e3565b8210610673576040517f08c379a000000000000000000000000000000000000000000000000000000000815260040161066a90612a44565b60405180910390fd5b600760008473ffffffffffffffffffffffffffffffffffffffff1673ffffffffffffffffffffffffffffffffffffffff168152602001908152602001600020600083815260200190815260200160002054905092915050565b6106e783838360405180602001604052806000815250610951565b505050565b60006106f66105ba565b8210610737576040517f08c379a000000000000000000000000000000000000000000000000000000000815260040161072e90612ad6565b60405180910390fd5b6009828154811061074b5761074a612af6565b5b90600052602060002001549050919050565b6000806107698361102e565b9050600073ffffffffffffffffffffffffffffffffffffffff168173ffffffffffffffffffffffffffffffffffffffff16036107da576040517f08c379a00000000000000000000000000000000000000000000000000000000081526004016107d190612b71565b60405180910390fd5b80915050919050565b60008073ffffffffffffffffffffffffffffffffffffffff168273ffffffffffffffffffffffffffffffffffffffff1603610853576040517f08c379a000000000000000000000000000000000000000000000000000000000815260040161084a90612c03565b60405180910390fd5b600360008373ffffffffffffffffffffffffffffffffffffffff1673ffffffffffffffffffffffffffffffffffffffff168152602001908152602001600020549050919050565b6060600180546108a9906127eb565b80601f01602080910402602001604051908101604052809291908181526020018280546108d5906127eb565b80156109225780601f106108f757610100808354040283529160200191610922565b820191906000526020600020905b81548152906001019060200180831161090557829003601f168201915b5050505050905090565b61093e610937610bdf565b838361106b565b5050565b61094d3382846106cc565b5050565b61096261095c610bdf565b83610ca0565b6109a1576040517f08c379a0000000000000000000000000000000000000000000000000000000008152600401610998906129b2565b60405180910390fd5b6109ad848484846111d7565b50505050565b60606109be82611233565b9050919050565b6000600560008473ffffffffffffffffffffffffffffffffffffffff1673ffffffffffffffffffffffffffffffffffffffff16815260200190815260200160002060008373ffffffffffffffffffffffffffffffffffffffff1673ffffffffffffffffffffffffffffffffffffffff16815260200190815260200160002060009054906101000a900460ff16905092915050565b600c60009054906101000a900473ffffffffffffffffffffffffffffffffffffffff1673ffffffffffffffffffffffffffffffffffffffff163373ffffffffffffffffffffffffffffffffffffffff1614610ae9576040517f08c379a0000000000000000000000000000000000000000000000000000000008152600401610ae090612c6f565b60405180910390fd5b6000610af5600b611345565b9050610b01600b611353565b610b0b8382611369565b610b158183611387565b505050565b60007f780e9d63000000000000000000000000000000000000000000000000000000007bffffffffffffffffffffffffffffffffffffffffffffffffffffffff1916827bffffffffffffffffffffffffffffffffffffffffffffffffffffffff19161480610b8d5750610b8c826113f4565b5b9050919050565b610b9d816114d6565b610bdc576040517f08c379a0000000000000000000000000000000000000000000000000000000008152600401610bd390612b71565b60405180910390fd5b50565b600033905090565b816004600083815260200190815260200160002060006101000a81548173ffffffffffffffffffffffffffffffffffffffff021916908373ffffffffffffffffffffffffffffffffffffffff160217905550808273ffffffffffffffffffffffffffffffffffffffff16610c5a8361075d565b73ffffffffffffffffffffffffffffffffffffffff167f8c5be1e5ebec7d5bd14f71427d1e84f3dd0314c0f7b2291e5b200ac8c7c3b92560405160405180910390a45050565b600080610cac8361075d565b90508073ffffffffffffffffffffffffffffffffffffffff168473ffffffffffffffffffffffffffffffffffffffff161480610cee5750610ced81856109c5565b5b80610d2c57508373ffffffffffffffffffffffffffffffffffffffff16610d148461045d565b73ffffffffffffffffffffffffffffffffffffffff16145b91505092915050565b8273ffffffffffffffffffffffffffffffffffffffff16610d558261075d565b73ffffffffffffffffffffffffffffffffffffffff1614610dab576040517f08c379a0000000000000000000000000000000000000000000000000000000008152600401610da290612d01565b60405180910390fd5b600073ffffffffffffffffffffffffffffffffffffffff168273ffffffffffffffffffffffffffffffffffffffff1603610e1a576040517f08c379a0000000000000000000000000000000000000000000000000000000008152600401610e1190612d93565b60405180910390fd5b610e278383836001611517565b8273ffffffffffffffffffffffffffffffffffffffff16610e478261075d565b73ffffffffffffffffffffffffffffffffffffffff1614610e9d576040517f08c379a0000000000000000000000000000000000000000000000000000000008152600401610e9490612d01565b60405180910390fd5b6004600082815260200190815260200160002060006101000a81549073ffffffffffffffffffffffffffffffffffffffff02191690556001600360008573ffffffffffffffffffffffffffffffffffffffff1673ffffffffffffffffffffffffffffffffffffffff168152602001908152602001600020600082825403925050819055506001600360008473ffffffffffffffffffffffffffffffffffffffff1673ffffffffffffffffffffffffffffffffffffffff16815260200190815260200160002060008282540192505081905550816002600083815260200190815260200160002060006101000a81548173ffffffffffffffffffffffffffffffffffffffff021916908373ffffffffffffffffffffffffffffffffffffffff160217905550808273ffffffffffffffffffffffffffffffffffffffff168473ffffffffffffffffffffffffffffffffffffffff167fddf252ad1be2c89b69c2b068fc378daa952ba7f163c4a11628f55a4df523b3ef60405160405180910390a46110298383836001611529565b505050565b60006002600083815260200190815260200160002060009054906101000a900473ffffffffffffffffffffffffffffffffffffffff169050919050565b8173ffffffffffffffffffffffffffffffffffffffff168373ffffffffffffffffffffffffffffffffffffffff16036110d9576040517f08c379a00000000000000000000000000000000000000000000000000000000081526004016110d090612dff565b60405180910390fd5b80600560008573ffffffffffffffffffffffffffffffffffffffff1673ffffffffffffffffffffffffffffffffffffffff16815260200190815260200160002060008473ffffffffffffffffffffffffffffffffffffffff1673ffffffffffffffffffffffffffffffffffffffff16815260200190815260200160002060006101000a81548160ff0219169083151502179055508173ffffffffffffffffffffffffffffffffffffffff168373ffffffffffffffffffffffffffffffffffffffff167f17307eab39ab6107e8899845ad3d59bd9653f200f220920489ca2b5937696c31836040516111ca9190612179565b60405180910390a3505050565b6111e2848484610d35565b6111ee8484848461152f565b61122d576040517f08c379a000000000000000000000000000000000000000000000000000000000815260040161122490612e91565b60405180910390fd5b50505050565b606061123e82610b94565b600060066000848152602001908152602001600020805461125e906127eb565b80601f016020809104026020016040519081016040528092919081815260200182805461128a906127eb565b80156112d75780601f106112ac576101008083540402835291602001916112d7565b820191906000526020600020905b8154815290600101906020018083116112ba57829003601f168201915b5050505050905060006112e86116b6565b905060008151036112fd578192505050611340565b60008251111561133257808260405160200161131a929190612eed565b60405160208183030381529060405292505050611340565b61133b846116cd565b925050505b919050565b600081600001549050919050565b6001816000016000828254019250508190555050565b611383828260405180602001604052806000815250611735565b5050565b611390826114d6565b6113cf576040517f08c379a00000000000000000000000000000000000000000000000000000000081526004016113c690612f83565b60405180910390fd5b806006600084815260200190815260200160002090816113ef919061314f565b505050565b60007f80ac58cd000000000000000000000000000000000000000000000000000000007bffffffffffffffffffffffffffffffffffffffffffffffffffffffff1916827bffffffffffffffffffffffffffffffffffffffffffffffffffffffff191614806114bf57507f5b5e139f000000000000000000000000000000000000000000000000000000007bffffffffffffffffffffffffffffffffffffffffffffffffffffffff1916827bffffffffffffffffffffffffffffffffffffffffffffffffffffffff1916145b806114cf57506114ce82611790565b5b9050919050565b60008073ffffffffffffffffffffffffffffffffffffffff166114f88361102e565b73ffffffffffffffffffffffffffffffffffffffff1614159050919050565b611523848484846117fa565b50505050565b50505050565b60006115508473ffffffffffffffffffffffffffffffffffffffff16611958565b156116a9578373ffffffffffffffffffffffffffffffffffffffff1663150b7a02611579610bdf565b8786866040518563ffffffff1660e01b815260040161159b9493929190613276565b6020604051808303816000875af19250505080156115d757506040513d601f19601f820116820180604052508101906115d491906132d7565b60015b611659573d8060008114611607576040519150601f19603f3d011682016040523d82523d6000602084013e61160c565b606091505b506000815103611651576040517f08c379a000000000000000000000000000000000000000000000000000000000815260040161164890612e91565b60405180910390fd5b805181602001fd5b63150b7a0260e01b7bffffffffffffffffffffffffffffffffffffffffffffffffffffffff1916817bffffffffffffffffffffffffffffffffffffffffffffffffffffffff1916149150506116ae565b600190505b949350505050565b606060405180602001604052806000815250905090565b60606116d882610b94565b60006116e26116b6565b90506000815111611702576040518060200160405280600081525061172d565b8061170c8461197b565b60405160200161171d929190612eed565b6040516020818303038152906040525b915050919050565b61173f8383611a49565b61174c600084848461152f565b61178b576040517f08c379a000000000000000000000000000000000000000000000000000000000815260040161178290612e91565b60405180910390fd5b505050565b60007f01ffc9a7000000000000000000000000000000000000000000000000000000007bffffffffffffffffffffffffffffffffffffffffffffffffffffffff1916827bffffffffffffffffffffffffffffffffffffffffffffffffffffffff1916149050919050565b61180684848484611c66565b600181111561184a576040517f08c379a000000000000000000000000000000000000000000000000000000000815260040161184190613376565b60405180910390fd5b6000829050600073ffffffffffffffffffffffffffffffffffffffff168573ffffffffffffffffffffffffffffffffffffffff16036118915761188c81611c6c565b6118d0565b8373ffffffffffffffffffffffffffffffffffffffff168573ffffffffffffffffffffffffffffffffffffffff16146118cf576118ce8582611cb5565b5b5b600073ffffffffffffffffffffffffffffffffffffffff168473ffffffffffffffffffffffffffffffffffffffff16036119125761190d81611e22565b611951565b8473ffffffffffffffffffffffffffffffffffffffff168473ffffffffffffffffffffffffffffffffffffffff16146119505761194f8482611ef3565b5b5b5050505050565b6000808273ffffffffffffffffffffffffffffffffffffffff163b119050919050565b60606000600161198a84611f72565b01905060008167ffffffffffffffff8111156119a9576119a86124d1565b5b6040519080825280601f01601f1916602001820160405280156119db5781602001600182028036833780820191505090505b509050600082602001820190505b600115611a3e578080600190039150507f3031323334353637383961626364656600000000000000000000000000000000600a86061a8153600a8581611a3257611a31613396565b5b049450600085036119e9575b819350505050919050565b600073ffffffffffffffffffffffffffffffffffffffff168273ffffffffffffffffffffffffffffffffffffffff1603611ab8576040517f08c379a0000000000000000000000000000000000000000000000000000000008152600401611aaf90613411565b60405180910390fd5b611ac1816114d6565b15611b01576040517f08c379a0000000000000000000000000000000000000000000000000000000008152600401611af89061347d565b60405180910390fd5b611b0f600083836001611517565b611b18816114d6565b15611b58576040517f08c379a0000000000000000000000000000000000000000000000000000000008152600401611b4f9061347d565b60405180910390fd5b6001600360008473ffffffffffffffffffffffffffffffffffffffff1673ffffffffffffffffffffffffffffffffffffffff16815260200190815260200160002060008282540192505081905550816002600083815260200190815260200160002060006101000a81548173ffffffffffffffffffffffffffffffffffffffff021916908373ffffffffffffffffffffffffffffffffffffffff160217905550808273ffffffffffffffffffffffffffffffffffffffff16600073ffffffffffffffffffffffffffffffffffffffff167fddf252ad1be2c89b69c2b068fc378daa952ba7f163c4a11628f55a4df523b3ef60405160405180910390a4611c62600083836001611529565b5050565b50505050565b600980549050600a600083815260200190815260200160002081905550600981908060018154018082558091505060019003906000526020600020016000909190919091505550565b60006001611cc2846107e3565b611ccc91906134cc565b9050600060086000848152602001908152602001600020549050818114611db1576000600760008673ffffffffffffffffffffffffffffffffffffffff1673ffffffffffffffffffffffffffffffffffffffff168152602001908152602001600020600084815260200190815260200160002054905080600760008773ffffffffffffffffffffffffffffffffffffffff1673ffffffffffffffffffffffffffffffffffffffff168152602001908152602001600020600084815260200190815260200160002081905550816008600083815260200190815260200160002081905550505b6008600084815260200190815260200160002060009055600760008573ffffffffffffffffffffffffffffffffffffffff1673ffffffffffffffffffffffffffffffffffffffff16815260200190815260200160002060008381526020019081526020016000206000905550505050565b60006001600980549050611e3691906134cc565b90506000600a6000848152602001908152602001600020549050600060098381548110611e6657611e65612af6565b5b906000526020600020015490508060098381548110611e8857611e87612af6565b5b906000526020600020018190555081600a600083815260200190815260200160002081905550600a6000858152602001908152602001600020600090556009805480611ed757611ed6613500565b5b6001900381819060005260206000200160009055905550505050565b6000611efe836107e3565b905081600760008573ffffffffffffffffffffffffffffffffffffffff1673ffffffffffffffffffffffffffffffffffffffff168152602001908152602001600020600083815260200190815260200160002081905550806008600084815260200190815260200160002081905550505050565b600080600090507a184f03e93ff9f4daa797ed6e38ed64bf6a1f0100000000000000008310611fd0577a184f03e93ff9f4daa797ed6e38ed64bf6a1f0100000000000000008381611fc657611fc5613396565b5b0492506040810190505b6d04ee2d6d415b85acef8100000000831061200d576d04ee2d6d415b85acef8100000000838161200357612002613396565b5b0492506020810190505b662386f26fc10000831061203c57662386f26fc10000838161203257612031613396565b5b0492506010810190505b6305f5e1008310612065576305f5e100838161205b5761205a613396565b5b0492506008810190505b612710831061208a5761271083816120805761207f613396565b5b0492506004810190505b606483106120ad57606483816120a3576120a2613396565b5b0492506002810190505b600a83106120bc576001810190505b80915050919050565b6000604051905090565b600080fd5b600080fd5b60007fffffffff0000000000000000000000000000000000000000000000000000000082169050919050565b61210e816120d9565b811461211957600080fd5b50565b60008135905061212b81612105565b92915050565b600060208284031215612147576121466120cf565b5b60006121558482850161211c565b91505092915050565b60008115159050919050565b6121738161215e565b82525050565b600060208201905061218e600083018461216a565b92915050565b600081519050919050565b600082825260208201905092915050565b60005b838110156121ce5780820151818401526020810190506121b3565b60008484015250505050565b6000601f19601f8301169050919050565b60006121f682612194565b612200818561219f565b93506122108185602086016121b0565b612219816121da565b840191505092915050565b6000602082019050818103600083015261223e81846121eb565b905092915050565b6000819050919050565b61225981612246565b811461226457600080fd5b50565b60008135905061227681612250565b92915050565b600060208284031215612292576122916120cf565b5b60006122a084828501612267565b91505092915050565b600073ffffffffffffffffffffffffffffffffffffffff82169050919050565b60006122d4826122a9565b9050919050565b6122e4816122c9565b82525050565b60006020820190506122ff60008301846122db565b92915050565b61230e816122c9565b811461231957600080fd5b50565b60008135905061232b81612305565b92915050565b60008060408385031215612348576123476120cf565b5b60006123568582860161231c565b925050602061236785828601612267565b9150509250929050565b61237a81612246565b82525050565b60006020820190506123956000830184612371565b92915050565b6000806000606084860312156123b4576123b36120cf565b5b60006123c28682870161231c565b93505060206123d38682870161231c565b92505060406123e486828701612267565b9150509250925092565b600060208284031215612404576124036120cf565b5b60006124128482850161231c565b91505092915050565b6124248161215e565b811461242f57600080fd5b50565b6000813590506124418161241b565b92915050565b6000806040838503121561245e5761245d6120cf565b5b600061246c8582860161231c565b925050602061247d85828601612432565b9150509250929050565b6000806040838503121561249e5761249d6120cf565b5b60006124ac85828601612267565b92505060206124bd8582860161231c565b9150509250929050565b600080fd5b600080fd5b7f4e487b7100000000000000000000000000000000000000000000000000000000600052604160045260246000fd5b612509826121da565b810181811067ffffffffffffffff82111715612528576125276124d1565b5b80604052505050565b600061253b6120c5565b90506125478282612500565b919050565b600067ffffffffffffffff821115612567576125666124d1565b5b612570826121da565b9050602081019050919050565b82818337600083830152505050565b600061259f61259a8461254c565b612531565b9050828152602081018484840111156125bb576125ba6124cc565b5b6125c684828561257d565b509392505050565b600082601f8301126125e3576125e26124c7565b5b81356125f384826020860161258c565b91505092915050565b60008060008060808587031215612616576126156120cf565b5b60006126248782880161231c565b94505060206126358782880161231c565b935050604061264687828801612267565b925050606085013567ffffffffffffffff811115612667576126666120d4565b5b612673878288016125ce565b91505092959194509250565b60008060408385031215612696576126956120cf565b5b60006126a48582860161231c565b92505060206126b58582860161231c565b9150509250929050565b600067ffffffffffffffff8211156126da576126d96124d1565b5b6126e3826121da565b9050602081019050919050565b60006127036126fe846126bf565b612531565b90508281526020810184848401111561271f5761271e6124cc565b5b61272a84828561257d565b509392505050565b600082601f830112612747576127466124c7565b5b81356127578482602086016126f0565b91505092915050565b60008060408385031215612777576127766120cf565b5b60006127858582860161231c565b925050602083013567ffffffffffffffff8111156127a6576127a56120d4565b5b6127b285828601612732565b9150509250929050565b7f4e487b7100000000000000000000000000000000000000000000000000000000600052602260045260246000fd5b6000600282049050600182168061280357607f821691505b602082108103612816576128156127bc565b5b50919050565b7f4552433732313a20617070726f76616c20746f2063757272656e74206f776e6560008201527f7200000000000000000000000000000000000000000000000000000000000000602082015250565b600061287860218361219f565b91506128838261281c565b604082019050919050565b600060208201905081810360008301526128a78161286b565b9050919050565b7f4552433732313a20617070726f76652063616c6c6572206973206e6f7420746f60008201527f6b656e206f776e6572206f7220617070726f76656420666f7220616c6c000000602082015250565b600061290a603d8361219f565b9150612915826128ae565b604082019050919050565b60006020820190508181036000830152612939816128fd565b9050919050565b7f4552433732313a2063616c6c6572206973206e6f7420746f6b656e206f776e6560008201527f72206f7220617070726f76656400000000000000000000000000000000000000602082015250565b600061299c602d8361219f565b91506129a782612940565b604082019050919050565b600060208201905081810360008301526129cb8161298f565b9050919050565b7f455243373231456e756d657261626c653a206f776e657220696e646578206f7560008201527f74206f6620626f756e6473000000000000000000000000000000000000000000602082015250565b6000612a2e602b8361219f565b9150612a39826129d2565b604082019050919050565b60006020820190508181036000830152612a5d81612a21565b9050919050565b7f455243373231456e756d657261626c653a20676c6f62616c20696e646578206f60008201527f7574206f6620626f756e64730000000000000000000000000000000000000000602082015250565b6000612ac0602c8361219f565b9150612acb82612a64565b604082019050919050565b60006020820190508181036000830152612aef81612ab3565b9050919050565b7f4e487b7100000000000000000000000000000000000000000000000000000000600052603260045260246000fd5b7f4552433732313a20696e76616c696420746f6b656e2049440000000000000000600082015250565b6000612b5b60188361219f565b9150612b6682612b25565b602082019050919050565b60006020820190508181036000830152612b8a81612b4e565b9050919050565b7f4552433732313a2061646472657373207a65726f206973206e6f74206120766160008201527f6c6964206f776e65720000000000000000000000000000000000000000000000602082015250565b6000612bed60298361219f565b9150612bf882612b91565b604082019050919050565b60006020820190508181036000830152612c1c81612be0565b9050919050565b7f4552524f523a20596f7520617265206e6f7420746865206f776e657200000000600082015250565b6000612c59601c8361219f565b9150612c6482612c23565b602082019050919050565b60006020820190508181036000830152612c8881612c4c565b9050919050565b7f4552433732313a207472616e736665722066726f6d20696e636f72726563742060008201527f6f776e6572000000000000000000000000000000000000000000000000000000602082015250565b6000612ceb60258361219f565b9150612cf682612c8f565b604082019050919050565b60006020820190508181036000830152612d1a81612cde565b9050919050565b7f4552433732313a207472616e7366657220746f20746865207a65726f2061646460008201527f7265737300000000000000000000000000000000000000000000000000000000602082015250565b6000612d7d60248361219f565b9150612d8882612d21565b604082019050919050565b60006020820190508181036000830152612dac81612d70565b9050919050565b7f4552433732313a20617070726f766520746f2063616c6c657200000000000000600082015250565b6000612de960198361219f565b9150612df482612db3565b602082019050919050565b60006020820190508181036000830152612e1881612ddc565b9050919050565b7f4552433732313a207472616e7366657220746f206e6f6e20455243373231526560008201527f63656976657220696d706c656d656e7465720000000000000000000000000000602082015250565b6000612e7b60328361219f565b9150612e8682612e1f565b604082019050919050565b60006020820190508181036000830152612eaa81612e6e565b9050919050565b600081905092915050565b6000612ec782612194565b612ed18185612eb1565b9350612ee18185602086016121b0565b80840191505092915050565b6000612ef98285612ebc565b9150612f058284612ebc565b91508190509392505050565b7f45524337323155524953746f726167653a2055524920736574206f66206e6f6e60008201527f6578697374656e7420746f6b656e000000000000000000000000000000000000602082015250565b6000612f6d602e8361219f565b9150612f7882612f11565b604082019050919050565b60006020820190508181036000830152612f9c81612f60565b9050919050565b60008190508160005260206000209050919050565b60006020601f8301049050919050565b600082821b905092915050565b6000600883026130057fffffffffffffffffffffffffffffffffffffffffffffffffffffffffffffffff82612fc8565b61300f8683612fc8565b95508019841693508086168417925050509392505050565b6000819050919050565b600061304c61304761304284612246565b613027565b612246565b9050919050565b6000819050919050565b61306683613031565b61307a61307282613053565b848454612fd5565b825550505050565b600090565b61308f613082565b61309a81848461305d565b505050565b5b818110156130be576130b3600082613087565b6001810190506130a0565b5050565b601f821115613103576130d481612fa3565b6130dd84612fb8565b810160208510156130ec578190505b6131006130f885612fb8565b83018261309f565b50505b505050565b600082821c905092915050565b600061312660001984600802613108565b1980831691505092915050565b600061313f8383613115565b9150826002028217905092915050565b61315882612194565b67ffffffffffffffff811115613171576131706124d1565b5b61317b82546127eb565b6131868282856130c2565b600060209050601f8311600181146131b957600084156131a7578287015190505b6131b18582613133565b865550613219565b601f1984166131c786612fa3565b60005b828110156131ef578489015182556001820191506020850194506020810190506131ca565b8683101561320c5784890151613208601f891682613115565b8355505b6001600288020188555050505b505050505050565b600081519050919050565b600082825260208201905092915050565b600061324882613221565b613252818561322c565b93506132628185602086016121b0565b61326b816121da565b840191505092915050565b600060808201905061328b60008301876122db565b61329860208301866122db565b6132a56040830185612371565b81810360608301526132b7818461323d565b905095945050505050565b6000815190506132d181612105565b92915050565b6000602082840312156132ed576132ec6120cf565b5b60006132fb848285016132c2565b91505092915050565b7f455243373231456e756d657261626c653a20636f6e736563757469766520747260008201527f616e7366657273206e6f7420737570706f727465640000000000000000000000602082015250565b600061336060358361219f565b915061336b82613304565b604082019050919050565b6000602082019050818103600083015261338f81613353565b9050919050565b7f4e487b7100000000000000000000000000000000000000000000000000000000600052601260045260246000fd5b7f4552433732313a206d696e7420746f20746865207a65726f2061646472657373600082015250565b60006133fb60208361219f565b9150613406826133c5565b602082019050919050565b6000602082019050818103600083015261342a816133ee565b9050919050565b7f4552433732313a20746f6b656e20616c7265616479206d696e74656400000000600082015250565b6000613467601c8361219f565b915061347282613431565b602082019050919050565b600060208201905081810360008301526134968161345a565b9050919050565b7f4e487b7100000000000000000000000000000000000000000000000000000000600052601160045260246000fd5b60006134d782612246565b91506134e283612246565b92508282039050818111156134fa576134f961349d565b5b92915050565b7f4e487b7100000000000000000000000000000000000000000000000000000000600052603160045260246000fdfea26469706673582212204ef87265f94ad8d5b693a9c1241a47c634f86610275bc2b4de84e034e79d5ae464736f6c63430008120033",
	"linkReferences": {},
	"deployedLinkReferences": {}
}